:100000000C94A7000C94C4000C94C4000C94C4007D
:100010000C94C4000C94C4000C94C4000C94C40050
:100020000C94C4000C9491090C94C4000C946C249E
:100030000C94C4000C94C4000C94C4000C94C40030
:100040000C94C4000C94C4000C94C4000C94C40020
:100050000C94C40000407A10F35A00A0724E1809A4
:100060000010A5D4E80000E87648170000E40B541F
:10007000020000CA9A3B000000E1F50500008096EE
:100080009800000040420F000000A0860100000020
:10009000102700000000E8030000000064000000DA
:1000A00000000A00000000000100000000002C76A3
:1000B000D888DC674F0823DFC1DFAE59E1B1B796BE
:1000C000E5E3E453C63AE651997696E8E6C284261B
:1000D000EB898C9B62ED407C6FFCEFBC9C9F40F2F7
:1000E000BAA56FA5F490055A2AF75C936B6CF96773
:1000F0006DC11BFCE0E40D47FEF520E6B500D0ED38
:10010000902E0300943577050080841E080000209F
:100110004E0A000000C80C333333330F986E12833D
:100120001141EF8D2114893BE65516CFFEE6DB1811
:10013000D1844B381BF77C1D901DA4BBE4242032D6
:1001400084725E228100C9F124ECA1E53D271124CF
:100150001FBECFE5D8E0DEBFCDBF12E0A0E6B0E025
:10016000E0EAFBE502C005900D92A830B107D9F78F
:1001700012E0A8E0B2E001C01D92AC31B107E1F796
:100180000E947B1B0C94CE2D0C940000EF92FF92EA
:100190000F931F937B018C0120E030E040E05FE48F
:1001A0000E94720488238CF0C801B70120E030E07F
:1001B00040E05FE40E943E020E9460059B01AC01AA
:1001C000205030404040504806C0C801B7010E944E
:1001D00060059B01AC01B901CA011F910F91FF900D
:1001E000EF900895A0E0B0E0E8EFF0E00C949B28D9
:1001F000DC012B01FA019C91923008F439C1EB012A
:100200008881823008F433C1943069F4843009F075
:100210002FC111969C9111978981981709F428C1D3
:10022000A0EFB0E025C1843009F421C18230A9F4E7
:10023000923009F01DC19A01AD0188E0EA010990F0
:10024000AE01E90109929E018150C1F7E201898165
:1002500011969C918923818308C1923009F407C1CA
:1002600012962D903C901397EB018A819B811496F6
:10027000AD90BD90CD90DC901797EC80FD800E8105
:100280001F819101281B390BB90137FF04C0662774
:100290007727621B730B603271050CF061C0121678
:1002A00013066CF537014801062E04C09694879416
:1002B000779467940A94D2F721E030E040E050E070
:1002C00004C0220F331F441F551F6A95D2F72150D7
:1002D0003040404050402E213F21402351232115E2
:1002E00031054105510521F021E030E040E050E0CA
:1002F00079018A01E628F728082919293CC0232B0F
:10030000D1F1260E371E35014601062E04C0969403
:100310008794779467940A94D2F721E030E040E024
:1003200050E004C0220F331F441F551F6A95D2F7B7
:1003300021503040404050402A213B214C215D213A
:10034000211531054105510521F021E030E040E063
:1003500050E059016A01A628B728C828D9280BC03F
:10036000821593052CF01C01AA24BB24650103C04F
:10037000EE24FF24870111969C91D20111968C9155
:10038000981709F445C0992339F0A80197012A1953
:100390003B094C095D0906C0A60195012E193F09CC
:1003A000400B510B57FD08C01182338222822483F7
:1003B0003583468357831DC081E081833382228247
:1003C00088279927DC01821B930BA40BB50B848330
:1003D0009583A683B7830DC0220F331F441F551F7B
:1003E0002483358346835783828193810197938346
:1003F00082832481358146815781DA01C9010197C1
:10040000A109B1098F5F9F4FAF4FBF4328F30BC0C6
:10041000918333822282EA0CFB1C0C1D1D1DE48299
:10042000F5820683178383E08083248135814681AA
:10043000578157FF1AC0C901AA2797FDA095BA2F67
:1004400081709070A070B07056954795379527953C
:10045000822B932BA42BB52B84839583A683B78300
:1004600082819381019693838283DF0101C0D2014F
:10047000CD01CDB7DEB7E2E10C94B728A0E2B0E041
:10048000E4E4F2E00C94A72869837A838B839C834D
:100490002D833E834F835887E9E0EE2EF12CEC0E3E
:1004A000FD1ECE010196B7010E94D8068E010F5E97
:1004B0001F4FCE010596B8010E94D8068A8991E0A7
:1004C00089278A8BC701B801AE01475E5F4F0E9442
:1004D000F2000E940306A096E6E00C94C328A0E276
:1004E000B0E0E5E7F2E00C94A72869837A838B8378
:1004F0009C832D833E834F835887F9E0EF2EF12CA8
:10050000EC0EFD1ECE010196B7010E94D8068E01A9
:100510000F5E1F4FCE010596B8010E94D806C70195
:10052000B801AE01475E5F4F0E94F2000E940306D1
:10053000A096E6E00C94C328A0E2B0E0E2EAF2E084
:100540000C949B2869837A838B839C832D833E83C1
:100550004F835887CE010196BE01675F7F4F0E948F
:10056000D806CE010596BE016F5E7F4F0E94D80669
:100570009985923088F089898230C8F0943019F4D6
:10058000823051F404C0843029F4923081F480EF39
:1005900090E0C6C0923049F420E09A858A89981389
:1005A00021E02A87CE010996BBC0823049F420E0C1
:1005B0009A858A89981321E02A8BCE014196B0C092
:1005C0002D843E844F8458886D887E888F88988CCF
:1005D000EE24FF248701AA24BB24650140E050E0FB
:1005E00060E070E0E0E0F0E0C10181709070892B84
:1005F000E9F0E60CF71C081D191D9A01AB012A0D44
:100600003B1D4C1D5D1D80E090E0A0E0B0E0E614D5
:10061000F7040805190520F481E090E0A0E0B0E0BF
:10062000BA01A901480F591F6A1F7B1FAA0CBB1CE6
:10063000CC1CDD1C97FE08C081E090E0A0E0B0E09B
:10064000A82AB92ACA2ADB2A3196E032F10549F0F4
:10065000660C771C881C991C5694479437942794F1
:10066000C3CFFA85EA892B893C898B859C85280F25
:10067000391F2E5F3F4F17C0CA0181709070892BC0
:1006800061F016950795F794E79480E090E0A0E07C
:10069000B0E8E82AF92A0A2B1B2B7695679557951F
:1006A00047952F5F3F4F77FDE7CF0CC0440F551F95
:1006B000661F771F17FD4160EE0CFF1C001F111F06
:1006C00021503040403090E0590790E0690790E4B5
:1006D000790760F32B8F3C8FDB01CA018F77907015
:1006E000A070B07080349105A105B10561F447FD9B
:1006F0000AC0E114F1040105110529F0405C5F4FC7
:100700006F4F7F4F40781A8EFE1711F081E08A8F6D
:100710004D8F5E8F6F8F78A383E0898FCE014996CE
:100720000E940306A096E2E10C94B728A8E1B0E08D
:10073000ECE9F3E00C94A32869837A838B839C8390
:100740002D833E834F835887B9E0EB2EF12CEC0EBE
:10075000FD1ECE010196B7010E94D8068E010F5EE4
:100760001F4FCE010596B8010E94D8062985223078
:1007700008F47EC03989323010F4B8017CC08A8513
:100780009A8989278A87243011F0223031F423177F
:1007900009F06EC060EF70E06EC0343039F41D8631
:1007A0001E861F86188A1C861B8604C0323021F4E0
:1007B00084E08987B7015FC02B853C858B899C8944
:1007C000281B390B3C872B87ED84FE840F85188905
:1007D000AD88BE88CF88D88CEA14FB040C051D05B3
:1007E00040F4EE0CFF1C001F111F215030403C87CD
:1007F0002B8720E030E040E050E080E090E0A0E097
:10080000B0E460E070E0EA14FB040C051D0540F064
:10081000282B392B4A2B5B2BEA18FB080C091D09E6
:10082000B695A79597958795EE0CFF1C001F111F95
:100830006F5F7F4F6F31710531F7DA01C9018F7733
:100840009070A070B07080349105A105B10561F47D
:1008500027FD0AC0E114F1040105110529F0205C0F
:100860003F4F4F4F5F4F20782D873E874F87588BE4
:10087000BE01675F7F4FCB010E9403066896EAE0E6
:100880000C94BF28A8E1B0E0E8E4F4E00C94A728B9
:1008900069837A838B839C832D833E834F83588720
:1008A00089E0E82EF12CEC0EFD1ECE010196B70179
:1008B0000E94D8068E010F5E1F4FCE010596B8012B
:1008C0000E94D8068985823040F08989823028F0DC
:1008D000C701B8010E94500701C08FEF6896E6E09B
:1008E0000C94C328A8E1B0E0E8E7F4E00C94A72852
:1008F00069837A838B839C832D833E834F835887C0
:1009000089E0E82EF12CEC0EFD1ECE010196B70118
:100910000E94D8068E010F5E1F4FCE010596B801CA
:100920000E94D8068985823040F08989823028F07B
:10093000C701B8010E94500701C08FEF6896E6E03A
:100940000C94C328A8E1B0E0E8EAF4E00C94A728EE
:1009500069837A838B839C832D833E834F8358875F
:1009600089E0E82EF12CEC0EFD1ECE010196B701B8
:100970000E94D8068E010F5E1F4FCE010596B8016A
:100980000E94D8068985823040F08989823028F01B
:10099000C701B8010E94500701C081E06896E6E0F7
:1009A0000C94C328A8E1B0E0E8EDF4E00C94A7288B
:1009B00069837A838B839C832D833E834F835887FF
:1009C00089E0E82EF12CEC0EFD1ECE010196B70158
:1009D0000E94D8068E010F5E1F4FCE010596B8010A
:1009E0000E94D8068985823040F08989823028F0BB
:1009F000C701B8010E94500701C081E06896E6E097
:100A00000C94C328A8E0B0E0E8E0F5E00C94A4283A
:100A10009B01AC0183E08983DA01C9018827B7FD16
:100A200083959927AA27BB27B82E211531054105A3
:100A3000510519F482E089833AC08823A9F0203057
:100A400080E0380780E0480780E8580729F460E034
:100A500070E080E09FEC30C0EE24FF248701E21AB2
:100A6000F30A040B150B02C079018A018EE1C82E2E
:100A7000D12CDC82CB82ED82FE820F831887C801E5
:100A8000B7010E94B40501971816190684F4082EC0
:100A900004C0EE0CFF1C001F111F0A94D2F7ED8258
:100AA000FE820F831887C81AD90ADC82CB82BA82E9
:100AB000CE0101960E9403062896E9E00C94C02816
:100AC000ACE0B0E0E6E6F5E00C94AB2869837A830D
:100AD0008B839C83CE010196BE016B5F7F4F0E948A
:100AE000D8068D81823061F1823050F1843021F45A
:100AF0008E81882351F12EC02F81388537FD20C08B
:100B00006E812F3131051CF06623F9F023C08EE190
:100B100090E0821B930B29853A854B855C8504C048
:100B200056954795379527958A95D2F76623B1F064
:100B300050954095309521953F4F4F4F5F4F0EC0D8
:100B400020E030E040E050E009C02FEF3FEF4FEFF2
:100B50005FE704C020E030E040E050E8B901CA019E
:100B60002C96E2E00C94C728EF92FF920F931F930C
:100B70007B018C0180E0E81680E0F80681E0080740
:100B800080E0180788F48FEFE816F10401051105DD
:100B900031F028F088E090E0A0E0B0E017C080E0FD
:100BA00090E0A0E0B0E012C080E0E81680E0F80637
:100BB00080E0080781E0180728F088E190E0A0E0D5
:100BC000B0E004C080E190E0A0E0B0E020E230E0DE
:100BD00040E050E0281B390B4A0B5B0B04C0169514
:100BE0000795F794E7948A95D2F7F701E850FF4FFD
:100BF0008081281B310941095109C9011F910F91B9
:100C0000FF90EF900895DF92EF92FF920F931F9362
:100C1000FC01E480F58006811781D18080818230DB
:100C200048F480E090E0A0E1B0E0E82AF92A0A2B3D
:100C30001B2BA5C0843009F49FC0823021F4EE2420
:100C4000FF24870105C0E114F1040105110519F421
:100C5000E0E0F0E096C0628173819FEF623879072F
:100C60000CF05BC022E83FEF261B370B2A31310521
:100C70002CF020E030E040E050E02AC0B801A701AD
:100C8000022E04C076956795579547950A94D2F73A
:100C900081E090E0A0E0B0E004C0880F991FAA1F97
:100CA000BB1F2A95D2F70197A109B1098E219F2177
:100CB000A023B1230097A105B10521F081E090E0C8
:100CC000A0E0B0E09A01AB01282B392B4A2B5B2B1B
:100CD000DA01C9018F779070A070B07080349105EF
:100CE000A105B10539F427FF09C0205C3F4F4F4FE4
:100CF0005F4F04C0215C3F4F4F4F5F4FE0E0F0E09B
:100D00002030A0E03A07A0E04A07A0E45A0710F01C
:100D1000E1E0F0E079018A0127C06038710564F5EF
:100D2000FB01E158FF4FD801C7018F779070A07089
:100D3000B07080349105A105B10539F4E7FE0DC00E
:100D400080E490E0A0E0B0E004C08FE390E0A0E099
:100D5000B0E0E80EF91E0A1F1B1F17FF05C016950D
:100D60000795F794E794319687E016950795F794E1
:100D7000E7948A95D1F705C0EE24FF248701EFEFB1
:100D8000F0E06E2F679566276795902F9F77D79431
:100D9000DD24D7948E2F8695492F462B582F5D2919
:100DA000B701CA011F910F91FF90EF90DF90089556
:100DB000FC01DB01408151812281622F6F7770E05D
:100DC000221F2227221F9381892F880F822B282FF1
:100DD00030E0991F9927991F11969C93119721151F
:100DE0003105A9F5411551056105710511F482E040
:100DF00037C082E89FEF13969C938E9312979A01C7
:100E0000AB0167E0220F331F441F551F6A95D1F7CE
:100E100083E08C930DC0220F331F441F551F129681
:100E20008D919C911397019713969C938E93129793
:100E3000203080E0380780E0480780E4580758F306
:100E400014962D933D934D935C93179708952F3FE0
:100E5000310579F4411551056105710519F484E0F6
:100E60008C93089564FF03C081E08C9312C01C92A0
:100E700010C02F57304013963C932E93129783E067
:100E80008C9387E0440F551F661F771F8A95D1F713
:100E9000706414964D935D936D937C9317970895AA
:100EA0001F93DC01FB019C91923008F447C08081C4
:100EB000823008F443C0943051F411961C91843070
:100EC00099F58181682F70E0611B71093FC0843002
:100ED00021F0923031F48230B9F18181882389F197
:100EE0002DC011961C9111978230F1F08181181755
:100EF000D9F412962D913C91139782819381821798
:100F0000930794F028173907BCF014968D919D91A2
:100F10000D90BC91A02D24813581468157812817E1
:100F200039074A075B0718F4112341F00AC08217FA
:100F30009307A407B50740F4112319F061E070E0AE
:100F400005C06FEF7FEF02C060E070E0CB011F9142
:100F50000895DF93CF93CDB7DEB7AAE2B0E0EAE21F
:100F6000F0E0808188618C93A0E4B0E0E0E4F0E000
:100F7000808186688C93E9E2F0E087E68083A0E4D4
:100F8000B0E0E0E4F0E080818C93CF91DF910895B0
:100F9000DF93CF930F92CDB7DEB78983EBE2F0E01A
:100FA0008081882F90E0807290700097B9F3ECE216
:100FB000F0E0898180830F90CF91DF910895DF93D6
:100FC000CF93CDB7DEB7EBE2F0E080818823DCF78A
:100FD000ECE2F0E08081CF91DF910895DF93CF9331
:100FE00000D00F92CDB7DEB79B838A830EC0898174
:100FF000282F30E08A819B81FC01E20FF31F808162
:101000000E94C80789818F5F89838981282F30E0FA
:101010008A819B81FC01E20FF31F8081882339F7CD
:101020000F900F900F90CF91DF910895EF92FF9264
:101030000F931F93DF93CF93CDB7DEB7A0970FB673
:10104000F894DEBF0FBECDBF7894A9E5B0E0E9E526
:10105000F0E0808184608C93ECE4F0E011821082F7
:10106000EFE4F0E01082AEE4B0E0EEE4F0E0808186
:1010700082648C93A8E5B0E0E8E5F0E080818460CC
:101080008C93A8E5B0E0E8E5F0E0808180628C9385
:10109000A2E3B0E0E2E3F0E0808184608C9380E042
:1010A00090E0A0E2B1E48D8B9E8BAF8BB88F6D8901
:1010B0007E898F89988D2BEA3AEA4AE250E40E94B1
:1010C0009C02DC01CB01898B9A8BAB8BBC8B698931
:1010D0007A898B899C8920E030E040E85FE30E94B8
:1010E000A20488231CF481E0888B91C069897A89E5
:1010F0008B899C8920E030E04FE753E40E94420452
:1011000018160CF07BC06D897E898F89988D20E040
:1011100030E04AE754E40E949603DC01CB018C875F
:101120009D87AE87BF876C857D858E859F8520E0F6
:1011300030E04AEF54E40E949C02DC01CB01888736
:101140009987AA87BB87688579858A859B8520E0F2
:1011500030E040E85FE30E94A20488232CF481E0A1
:1011600090E09F838E833FC0688579858A859B85C3
:1011700020E03FEF4FE757E40E94420418164CF579
:101180006C857D858E859F8520E030E040E251E4CE
:101190000E949C02DC01CB01BC01CD010E94C60073
:1011A000DC01CB019F838E830FC088EC90E09D8390
:1011B0008C838C819D810197F1F79D838C838E8137
:1011C0009F8101979F838E838E819F81009769F70E
:1011D00024C0688579858A859B850E94C600DC01CC
:1011E000CB019F838E838E819F819B838A838A819B
:1011F0009B810197F1F79B838A830FC069897A8964
:101200008B899C890E94C600DC01CB01888B888970
:10121000898389818A95F1F78983A2E3B0E0E2E3CB
:10122000F0E080818B7F8C93E8E5F0E08081882F6F
:1012300090E0807290700097B9F3ECE4F0E01182D6
:101240001082109208021092090210920A02109263
:101250000B02AEE4B0E0EEE4F0E080818F7B8C9393
:10126000A8E5B0E0E8E5F0E0808184608C93A8E533
:10127000B0E0E8E5F0E0808180628C93E8E5F0E0A2
:101280008081882F90E0807290700097B9F3E6E437
:10129000F0E0808191817C0100E010E08091080203
:1012A00090910902A0910A02B0910B022FEF3FEF3B
:1012B00040E050E0BC01CD010E945528DC01CB018B
:1012C0008E0D9F1DA01FB11F8D8F9E8FAF8FB8A356
:1012D0006D8D7E8D8F8D98A10E940205DC01CB0162
:1012E000BC01CD0128E23EE74CE05CE30E949C0299
:1012F000DC01CB01898F9A8FAB8FBC8F898D9A8D42
:10130000AB8DBC8DBC01CD01A0960FB6F894DEBFAD
:101310000FBECDBFCF91DF911F910F91FF90EF9046
:1013200008951F920F920FB60F9211248F939F93DF
:10133000AF93BF93DF93CF93CDB7DEB78091080211
:1013400090910902A0910A02B0910B020196A11D91
:10135000B11D8093080290930902A0930A02B093F2
:101360000B02CF91DF91BF91AF919F918F910F9021
:101370000FBE0F901F9018950F931F93DF93CF937D
:10138000CDB7DEB7CD57D0400FB6F894DEBF0FBE55
:10139000CDBFFE01E458FF4F8083FE01E358FF4FAD
:1013A0006083DE01A558BF4FFE01E458FF4F8081E6
:1013B00082958F708C93DE01A658BF4FFE01E458D2
:1013C000FF4F80818F708C93FE01E358FF4F808127
:1013D000882341F4ABE3B0E0EBE3F0E080818E7F63
:1013E0008C9307C0ABE3B0E0EBE3F0E08081816079
:1013F0008C93FE01EB58FF4F80E090E0A0E0BFE34C
:1014000080839183A283B3838E010F581F4FFE0107
:10141000EB58FF4F60817181828193812BEA3AEA18
:101420004AE250E40E949C02DC01CB01F801808377
:101430009183A283B383FE01EF58FF4F60817181D6
:101440008281938120E030E040E85FE30E94A204C3
:10145000882334F4FE01E059FF4F81E08083E0C02F
:10146000FE01EF58FF4F608171818281938120E0FE
:1014700030E04FE753E40E94420418160CF0C0C05D
:10148000FE01EB58FF4F608171818281938120E0E2
:1014900030E04AE754E40E949603DC01CB01FE01F0
:1014A000E459FF4F80839183A283B3838E0108594F
:1014B0001F4FFE01E459FF4F60817181828193814A
:1014C00020E030E04AEF54E40E949C02DC01CB01B2
:1014D000F80180839183A283B383FE01E859FF4F13
:1014E000608171818281938120E030E040E85FE398
:1014F0000E94A204882344F4FE01EA59FF4F81E0D0
:1015000090E09183808364C0FE01E859FF4F6081C1
:1015100071818281938120E03FEF4FE757E40E9481
:10152000420418160CF043C0FE01E459FF4F6081DD
:1015300071818281938120E030E040E251E40E9499
:101540009C02DC01CB018E010A591F4FBC01CD0169
:101550000E94C600DC01CB01F801918380831FC08B
:10156000FE01EC59FF4F88EC90E091838083FE01EF
:10157000EC59FF4F808191810197F1F7FE01EC5901
:10158000FF4F91838083DE01AA59BF4FFE01EA59C4
:10159000FF4F80819181019711969C938E93FE015C
:1015A000EA59FF4F808191810097D1F64BC08E019F
:1015B0000A591F4FFE01E859FF4F608171818281F6
:1015C00093810E94C600DC01CB01F80191838083E6
:1015D000DE01AE59BF4FFE01EA59FF4F8081918174
:1015E00011969C938E93FE01EE59FF4F808191815D
:1015F0000197F1F7FE01EE59FF4F9183808322C0DE
:101600008E0100591F4FFE01EF58FF4F608171811D
:10161000828193810E94C600DC01CB01F8018083A6
:10162000DE01AF59BF4FFE01E059FF4F80818C931F
:10163000FE01EF59FF4F80818A95F1F7FE01EF59C6
:10164000FF4F8083ABE3B0E0EBE3F0E080818460A8
:101650008C93EBE3F0E08081282F2F70FE01E5589A
:10166000FF4F8081882F90E082959295907F9827F8
:10167000807F9827822BFE01E758FF4F8083ABE3E2
:10168000B0E0FE01E758FF4F80818C93FE01E35AE2
:10169000FF4F80E090E0A0E8BFE380839183A283C6
:1016A000B3838E01075A1F4FFE01E35AFF4F60813B
:1016B0007181828193812BEA3AEA4AE250E40E94E6
:1016C0009C02DC01CB01F80180839183A283B38368
:1016D000FE01E75AFF4F608171818281938120E092
:1016E00030E040E85FE30E94A204882334F4FE0166
:1016F000E85AFF4F81E08083E0C0FE01E75AFF4FC8
:10170000608171818281938120E030E04FE753E472
:101710000E94420418160CF0C0C0FE01E35AFF4FAD
:10172000608171818281938120E030E04AE754E456
:101730000E949603DC01CB01FE01EC5AFF4F80832F
:101740009183A283B3838E01005B1F4FFE01EC5A8D
:10175000FF4F608171818281938120E030E04AEF08
:1017600054E40E949C02DC01CB01F8018083918348
:10177000A283B383FE01E05BFF4F608171818281B0
:10178000938120E030E040E85FE30E94A2048823D8
:1017900044F4FE01E25BFF4F81E090E0918380839F
:1017A00064C0FE01E05BFF4F6081718182819381A3
:1017B00020E03FEF4FE757E40E94420418160CF078
:1017C00043C0FE01EC5AFF4F608171818281938199
:1017D00020E030E040E251E40E949C02DC01CB01B9
:1017E0008E01025B1F4FBC01CD010E94C600DC01CF
:1017F000CB01F801918380831FC0FE01E45BFF4FA2
:1018000088EC90E091838083FE01E45BFF4F808150
:1018100091810197F1F7FE01E45BFF4F9183808393
:10182000DE01A25BBF4FFE01E25BFF4F8081918131
:10183000019711969C938E93FE01E25BFF4F80818E
:1018400091810097D1F64BC08E01025B1F4FFE01C4
:10185000E05BFF4F60817181828193810E94C600AD
:10186000DC01CB01F80191838083DE01A65BBF4FD1
:10187000FE01E25BFF4F8081918111969C938E93D4
:10188000FE01E65BFF4F808191810197F1F7FE0138
:10189000E65BFF4F9183808322C08E01085A1F4F61
:1018A000FE01E75AFF4F60817181828193810E941E
:1018B000C600DC01CB01F8018083DE01A75BBF4FCE
:1018C000FE01E85AFF4F80818C93FE01E75BFF4FDA
:1018D00080818A95F1F7FE01E75BFF4F8083ABE3E0
:1018E000B0E0EBE3F0E080818B7F8C93FE01EB5B5B
:1018F000FF4F80E090E0A0E8BFE380839183A28364
:10190000B3838E010F5B1F4FFE01EB5BFF4F6081C6
:101910007181828193812BEA3AEA4AE250E40E9483
:101920009C02DC01CB01F80180839183A283B38305
:10193000FE01EF5BFF4F608171818281938120E026
:1019400030E040E85FE30E94A204882334F481E0A1
:10195000FE01E05CFF4F80839DC0FE01EF5BFF4F07
:10196000608171818281938120E030E04FE753E410
:101970000E94420418160CF07EC0FE01EB5BFF4F84
:10198000608171818281938120E030E04AE754E4F4
:101990000E949603DC01CB018CAF9DAFAEAFBFAF11
:1019A0006CAD7DAD8EAD9FAD20E030E04AEF54E4EC
:1019B0000E949C02DC01CB0188AF99AFAAAFBBAFFC
:1019C00068AD79AD8AAD9BAD20E030E040E85FE3E3
:1019D0000E94A20488232CF481E090E09FAB8EABA0
:1019E0003FC068AD79AD8AAD9BAD20E03FEF4FE7DA
:1019F00057E40E94420418164CF56CAD7DAD8EADD7
:101A00009FAD20E030E040E251E40E949C02DC0106
:101A1000CB01BC01CD010E94C600DC01CB019FAB14
:101A20008EAB0FC088EC90E09DAB8CAB8CA99DA9D0
:101A30000197F1F79DAB8CAB8EA99FA901979FAB46
:101A40008EAB8EA99FA9009769F72DC068AD79ADBF
:101A50008AAD9BAD0E94C600DC01CB019FAB8EAB73
:101A60008EA99FA99BAB8AAB8AA99BA90197F1F785
:101A70009BAB8AAB18C0FE01EF5BFF4F60817181A9
:101A8000828193810E94C600DC01CB01FE01E05CF3
:101A9000FF4F8083FE01E05CFF4F808189AB89A905
:101AA0008A95F1F789ABABE3B0E0EBE3F0E080813E
:101AB00084608C93EBE3F0E08081282F2F70FE018F
:101AC000E658FF4F8081882F90E082959295907F15
:101AD0009827807F9827822BFE01E758FF4F80834D
:101AE000ABE3B0E0FE01E758FF4F80818C9380E0CC
:101AF00090E0A0E8BFE38DA79EA7AFA7B8AB6DA508
:101B00007EA58FA598A92BEA3AEA4AE250E40E9402
:101B10009C02DC01CB0189A79AA7ABA7BCA769A54A
:101B20007AA58BA59CA520E030E040E85FE30E9409
:101B3000A20488231CF481E088A791C069A57AA536
:101B40008BA59CA520E030E04FE753E40E944204BF
:101B500018160CF07BC06DA57EA58FA598A920E076
:101B600030E04AE754E40E949603DC01CB018CA3E9
:101B70009DA3AEA3BFA36CA17DA18EA19FA120E0D8
:101B800030E04AEF54E40E949C02DC01CB0188A3C0
:101B900099A3AAA3BBA368A179A18AA19BA120E0D4
:101BA00030E040E85FE30E94A20488232CF481E047
:101BB00090E09F8F8E8F3FC068A179A18AA19BA1E1
:101BC00020E03FEF4FE757E40E94420418164CF51F
:101BD0006CA17DA18EA19FA120E030E040E251E404
:101BE0000E949C02DC01CB01BC01CD010E94C60019
:101BF000DC01CB019F8F8E8F0FC088EC90E09D8F12
:101C00008C8F8C8D9D8D0197F1F79D8F8C8F8E8D94
:101C10009F8D01979F8F8E8F8E8D9F8D009769F777
:101C200024C068A179A18AA19BA10E94C600DC0101
:101C3000CB019F8F8E8F8E8D9F8D9B8F8A8F8A8DEC
:101C40009B8D0197F1F79B8F8A8F0FC069A57AA5AD
:101C50008BA59CA50E94C600DC01CB0188A788A5A6
:101C6000898F898D8A95F1F7898FABE3B0E0EBE33B
:101C7000F0E080818B7F8C9380E090E0A0E8BFE370
:101C80008D8B9E8BAF8BB88F6D897E898F89988D58
:101C90002BEA3AEA4AE250E40E949C02DC01CB01C2
:101CA000898B9A8BAB8BBC8B69897A898B899C8950
:101CB00020E030E040E85FE30E94A20488231CF4A7
:101CC00081E0888B91C069897A898B899C8920E021
:101CD00030E04FE753E40E94420418160CF07BC03A
:101CE0006D897E898F89988D20E030E04AE754E441
:101CF0000E949603DC01CB018C879D87AE87BF874E
:101D00006C857D858E859F8520E030E04AEF54E428
:101D10000E949C02DC01CB0188879987AA87BB8738
:101D2000688579858A859B8520E030E040E85FE31F
:101D30000E94A20488232CF481E090E09F838E838C
:101D40003FC0688579858A859B8520E03FEF4FE716
:101D500057E40E94420418164CF56C857D858E85EB
:101D60009F8520E030E040E251E40E949C02DC01CB
:101D7000CB01BC01CD010E94C600DC01CB019F83D9
:101D80008E830FC088EC90E09D838C838C819D8135
:101D90000197F1F79D838C838E819F8101979F83AB
:101DA0008E838E819F81009769F724C0688579852D
:101DB0008A859B850E94C600DC01CB019F838E83B0
:101DC0008E819F819B838A838A819B810197F1F712
:101DD0009B838A830FC069897A898B899C890E9439
:101DE000C600DC01CB01888B8889898389818A952B
:101DF000F1F789830E94080FC358DF4F0FB6F8949C
:101E0000DEBF0FBECDBFCF91DF911F910F9108951F
:101E10000F931F93DF93CF93CDB7DEB7CB5AD0404C
:101E20000FB6F894DEBF0FBECDBFFE01E655FF4FE3
:101E30001082AAE3B0E0EAE3F0E080818F708C9337
:101E4000ABE3B0E0EBE3F0E0808182608C93ABE346
:101E5000B0E0EBE3F0E080818E7F8C93FE01EB55E8
:101E6000FF4F80E090E0A0E0BFE380839183A283F6
:101E7000B3838E010F551F4FFE01EB55FF4F60815D
:101E80007181828193812BEA3AEA4AE250E40E940E
:101E90009C02DC01CB01F80180839183A283B38390
:101EA000FE01EF55FF4F608171818281938120E0B7
:101EB00030E040E85FE30E94A204882334F4FE018E
:101EC000E056FF4F81E08083E0C0FE01EF55FF4FF9
:101ED000608171818281938120E030E04FE753E49B
:101EE0000E94420418160CF0C0C0FE01EB55FF4FD3
:101EF000608171818281938120E030E04AE754E47F
:101F00000E949603DC01CB01FE01E456FF4F808363
:101F10009183A283B3838E0108561F4FFE01E456BE
:101F2000FF4F608171818281938120E030E04AEF30
:101F300054E40E949C02DC01CB01F8018083918370
:101F4000A283B383FE01E856FF4F608171818281D5
:101F5000938120E030E040E85FE30E94A204882300
:101F600044F4FE01EA56FF4F81E090E091838083C4
:101F700064C0FE01E856FF4F6081718182819381C8
:101F800020E03FEF4FE757E40E94420418160CF0A0
:101F900043C0FE01E456FF4F6081718182819381CD
:101FA00020E030E040E251E40E949C02DC01CB01E1
:101FB0008E010A561F4FBC01CD010E94C600DC01F4
:101FC000CB01F801918380831FC0FE01EC56FF4FC7
:101FD00088EC90E091838083FE01EC56FF4F808176
:101FE00091810197F1F7FE01EC56FF4F91838083B9
:101FF000DE01AA56BF4FFE01EA56FF4F8081918154
:10200000019711969C938E93FE01EA56FF4F8081B3
:1020100091810097D1F64BC08E010A561F4FFE01E9
:10202000E856FF4F60817181828193810E94C600D2
:10203000DC01CB01F80191838083DE01AE56BF4FF6
:10204000FE01EA56FF4F8081918111969C938E93F9
:10205000FE01EE56FF4F808191810197F1F7FE015D
:10206000EE56FF4F9183808322C08E0100561F4F92
:10207000FE01EF55FF4F60817181828193810E9443
:10208000C600DC01CB01F8018083DE01AF56BF4FF3
:10209000FE01E056FF4F80818C93FE01EF56FF4F0B
:1020A00080818A95F1F7FE01EF56FF4F8083ABE305
:1020B000B0E0EBE3F0E0808184608C93FE01E357B5
:1020C000FF4F80E090E0A0E0BFE380839183A28394
:1020D000B3838E0107571F4FFE01E357FF4F608107
:1020E0007181828193812BEA3AEA4AE250E40E94AC
:1020F0009C02DC01CB01F80180839183A283B3832E
:10210000FE01E757FF4F608171818281938120E05A
:1021100030E040E85FE30E94A204882334F4FE012B
:10212000E857FF4F81E08083E0C0FE01E757FF4F93
:10213000608171818281938120E030E04FE753E438
:102140000E94420418160CF0C0C0FE01E357FF4F76
:10215000608171818281938120E030E04AE754E41C
:102160000E949603DC01CB01FE01EC57FF4F8083F8
:102170009183A283B3838E0100581F4FFE01EC5759
:10218000FF4F608171818281938120E030E04AEFCE
:1021900054E40E949C02DC01CB01F801808391830E
:1021A000A283B383FE01E058FF4F60817181828179
:1021B000938120E030E040E85FE30E94A20488239E
:1021C00044F4FE01E258FF4F81E090E09183808368
:1021D00064C0FE01E058FF4F60817181828193816C
:1021E00020E03FEF4FE757E40E94420418160CF03E
:1021F00043C0FE01EC57FF4F608171818281938162
:1022000020E030E040E251E40E949C02DC01CB017E
:102210008E0102581F4FBC01CD010E94C600DC0197
:10222000CB01F801918380831FC0FE01E458FF4F6A
:1022300088EC90E091838083FE01E458FF4F808119
:1022400091810197F1F7FE01E458FF4F918380835C
:10225000DE01A258BF4FFE01E258FF4F80819181FD
:10226000019711969C938E93FE01E258FF4F808157
:1022700091810097D1F64BC08E0102581F4FFE018D
:10228000E058FF4F60817181828193810E94C60076
:10229000DC01CB01F80191838083DE01A658BF4F9A
:1022A000FE01E258FF4F8081918111969C938E939D
:1022B000FE01E658FF4F808191810197F1F7FE0101
:1022C000E658FF4F9183808322C08E0108571F4F2D
:1022D000FE01E757FF4F60817181828193810E94E7
:1022E000C600DC01CB01F8018083DE01A758BF4F97
:1022F000FE01E857FF4F80818C93FE01E758FF4FA6
:1023000080818A95F1F7FE01E758FF4F8083E9E36A
:10231000F0E08081FE01E655FF4F82958F7080834B
:10232000DE01A655BF4FFE01E655FF4F8081829525
:10233000807F8C93FE01EB58FF4F80E090E0A0E09F
:10234000BFE380839183A283B3838E010F581F4F15
:10235000FE01EB58FF4F60817181828193812BEAEE
:102360003AEA4AE250E40E949C02DC01CB01F80107
:1023700080839183A283B383FE01EF58FF4F608176
:1023800071818281938120E030E040E85FE30E9428
:10239000A204882334F4FE01E059FF4F81E08083DA
:1023A000E0C0FE01EF58FF4F60817181828193810F
:1023B00020E030E04FE753E40E94420418160CF08E
:1023C000C0C0FE01EB58FF4F608171818281938113
:1023D00020E030E04AE754E40E949603DC01CB01A0
:1023E000FE01E459FF4F80839183A283B3838E0162
:1023F00008591F4FFE01E459FF4F608171818281AE
:10240000938120E030E04AEF54E40E949C02DC011A
:10241000CB01F80180839183A283B383FE01E85945
:10242000FF4F608171818281938120E030E040E83C
:102430005FE30E94A204882344F4FE01EA59FF4F9F
:1024400081E090E09183808364C0FE01E859FF4FF2
:10245000608171818281938120E03FEF4FE757E4F3
:102460000E94420418160CF043C0FE01E459FF4FCD
:10247000608171818281938120E030E040E251E40B
:102480000E949C02DC01CB018E010A591F4FBC0146
:10249000CD010E94C600DC01CB01F801918380834D
:1024A0001FC0FE01EC59FF4F88EC90E091838083C0
:1024B000FE01EC59FF4F808191810197F1F7FE01F8
:1024C000EC59FF4F91838083DE01AA59BF4FFE0173
:1024D000EA59FF4F80819181019711969C938E93C9
:1024E000FE01EA59FF4F808191810097D1F64BC0E0
:1024F0008E010A591F4FFE01E859FF4F608171811B
:10250000828193810E94C600DC01CB01F801918396
:102510008083DE01AE59BF4FFE01EA59FF4F808133
:10252000918111969C938E93FE01EE59FF4F80810D
:1025300091810197F1F7FE01EE59FF4F918380835E
:1025400022C08E0100591F4FFE01EF58FF4F6081DE
:102550007181828193810E94C600DC01CB01F80168
:102560008083DE01AF59BF4FFE01E059FF4F8081EC
:102570008C93FE01EF59FF4F80818A95F1F7FE01A0
:10258000EF59FF4F8083ABE3B0E0EBE3F0E08081F5
:102590008B7F8C93FE01E35AFF4F80E090E0A0E830
:1025A000BFE380839183A283B3838E01075A1F4FB9
:1025B000FE01E35AFF4F60817181828193812BEA92
:1025C0003AEA4AE250E40E949C02DC01CB01F801A5
:1025D00080839183A283B383FE01E75AFF4F60811A
:1025E00071818281938120E030E040E85FE30E94C6
:1025F000A204882334F4FE01E85AFF4F81E080836F
:10260000E0C0FE01E75AFF4F6081718182819381B2
:1026100020E030E04FE753E40E94420418160CF02B
:10262000C0C0FE01E35AFF4F6081718182819381B6
:1026300020E030E04AE754E40E949603DC01CB013D
:10264000FE01EC5AFF4F80839183A283B3838E01F6
:10265000005B1F4FFE01EC5AFF4F60817181828148
:10266000938120E030E04AEF54E40E949C02DC01B8
:10267000CB01F80180839183A283B383FE01E05BE9
:10268000FF4F608171818281938120E030E040E8DA
:102690005FE30E94A204882344F4FE01E25BFF4F43
:1026A00081E090E09183808364C0FE01E05BFF4F96
:1026B000608171818281938120E03FEF4FE757E491
:1026C0000E94420418160CF043C0FE01EC5AFF4F62
:1026D000608171818281938120E030E040E251E4A9
:1026E0000E949C02DC01CB018E01025B1F4FBC01EA
:1026F000CD010E94C600DC01CB01F80191838083EB
:102700001FC0FE01E45BFF4F88EC90E09183808363
:10271000FE01E45BFF4F808191810197F1F7FE019B
:10272000E45BFF4F91838083DE01A25BBF4FFE011C
:10273000E25BFF4F80819181019711969C938E936C
:10274000FE01E25BFF4F808191810097D1F64BC083
:102750008E01025B1F4FFE01E05BFF4F60817181C4
:10276000828193810E94C600DC01CB01F801918334
:102770008083DE01A65BBF4FFE01E25BFF4F8081DD
:10278000918111969C938E93FE01E65BFF4F8081B1
:1027900091810197F1F7FE01E65BFF4F9183808302
:1027A00022C08E01085A1F4FFE01E75AFF4F608179
:1027B0007181828193810E94C600DC01CB01F80106
:1027C0008083DE01A75BBF4FFE01E85AFF4F808187
:1027D0008C93FE01E75BFF4F80818A95F1F7FE0144
:1027E000E75BFF4F8083ABE3B0E0EBE3F0E0808199
:1027F00084608C93FE01EB5BFF4F80E090E0A0E0F3
:10280000BFE380839183A283B3838E010F5B1F4F4D
:10281000FE01EB5BFF4F60817181828193812BEA26
:102820003AEA4AE250E40E949C02DC01CB01F80142
:1028300080839183A283B383FE01EF5BFF4F6081AE
:1028400071818281938120E030E040E85FE30E9463
:10285000A204882334F481E0FE01E05CFF4F808312
:102860009DC0FE01EF5BFF4F60817181828193818A
:1028700020E030E04FE753E40E94420418160CF0C9
:102880007EC0FE01EB5BFF4F60817181828193818D
:1028900020E030E04AE754E40E949603DC01CB01DB
:1028A0008CAF9DAFAEAFBFAF6CAD7DAD8EAD9FAD0C
:1028B00020E030E04AEF54E40E949C02DC01CB01AE
:1028C00088AF99AFAAAFBBAF68AD79AD8AAD9BAD0C
:1028D00020E030E040E85FE30E94A20488232CF46B
:1028E00081E090E09FAB8EAB3FC068AD79AD8AAD23
:1028F0009BAD20E03FEF4FE757E40E9442041816DB
:102900004CF56CAD7DAD8EAD9FAD20E030E040E28A
:1029100051E40E949C02DC01CB01BC01CD010E946C
:10292000C600DC01CB019FAB8EAB0FC088EC90E002
:102930009DAB8CAB8CA99DA90197F1F79DAB8CAB9E
:102940008EA99FA901979FAB8EAB8EA99FA90097D7
:1029500069F72DC068AD79AD8AAD9BAD0E94C60008
:10296000DC01CB019FAB8EAB8EA99FA99BAB8AAB41
:102970008AA99BA90197F1F79BAB8AAB18C0FE010E
:10298000EF5BFF4F60817181828193810E94C6005D
:10299000DC01CB01FE01E05CFF4F8083FE01E05CC7
:1029A000FF4F808189AB89A98A95F1F789ABE9E36B
:1029B000F0E08081FE01E755FF4F82958F708083A4
:1029C000DE01A755BF4FFE01E755FF4F80818F7095
:1029D0008C939E0126553F4FFE01E655FF4FDE01C9
:1029E000A755BF4F90818C91892BF9018083DE011F
:1029F000A555BF4FFE01E655FF4F808180788C932F
:102A000080E090E0A0E0BFE38DA79EA7AFA7B8ABA2
:102A10006DA57EA58FA598A92BEA3AEA4AE250E473
:102A20000E949C02DC01CB0189A79AA7ABA7BCA797
:102A300069A57AA58BA59CA520E030E040E85FE37E
:102A40000E94A20488231CF481E088A791C069A594
:102A50007AA58BA59CA520E030E04FE753E40E94C7
:102A6000420418160CF07BC06DA57EA58FA598A911
:102A700020E030E04AE754E40E949603DC01CB01F9
:102A80008CA39DA3AEA3BFA36CA17DA18EA19FA18A
:102A900020E030E04AEF54E40E949C02DC01CB01CC
:102AA00088A399A3AAA3BBA368A179A18AA19BA18A
:102AB00020E030E040E85FE30E94A20488232CF489
:102AC00081E090E09F8F8E8F3FC068A179A18AA19D
:102AD0009BA120E03FEF4FE757E40E944204181605
:102AE0004CF56CA17DA18EA19FA120E030E040E2D9
:102AF00051E40E949C02DC01CB01BC01CD010E948B
:102B0000C600DC01CB019F8F8E8F0FC088EC90E058
:102B10009D8F8C8F8C8D9D8D0197F1F79D8F8C8F64
:102B20008E8D9F8D01979F8F8E8F8E8D9F8D00979D
:102B300069F724C068A179A18AA19BA10E94C6005F
:102B4000DC01CB019F8F8E8F8E8D9F8D9B8F8A8F07
:102B50008A8D9B8D0197F1F79B8F8A8F0FC069A596
:102B60007AA58BA59CA50E94C600DC01CB0188A795
:102B700088A5898F898D8A95F1F7898FABE3B0E0BD
:102B8000EBE3F0E080818B7F8C9380E090E0A0E825
:102B9000BFE38D8B9E8BAF8BB88F6D897E898F89BC
:102BA000988D2BEA3AEA4AE250E40E949C02DC014A
:102BB000CB01898B9A8BAB8BBC8B69897A898B898A
:102BC0009C8920E030E040E85FE30E94A204882373
:102BD0001CF481E0888B91C069897A898B899C89F2
:102BE00020E030E04FE753E40E94420418160CF056
:102BF0007BC06D897E898F89988D20E030E04AE71F
:102C000054E40E949603DC01CB018C879D87AE873C
:102C1000BF876C857D858E859F8520E030E04AEFFB
:102C200054E40E949C02DC01CB0188879987AA8723
:102C3000BB87688579858A859B8520E030E040E800
:102C40005FE30E94A20488232CF481E090E09F833C
:102C50008E833FC0688579858A859B8520E03FEF1C
:102C60004FE757E40E94420418164CF56C857D85A9
:102C70008E859F8520E030E040E251E40E949C0276
:102C8000DC01CB01BC01CD010E94C600DC01CB01FF
:102C90009F838E830FC088EC90E09D838C838C8112
:102CA0009D810197F1F79D838C838E819F81019790
:102CB0009F838E838E819F81009769F724C06885EA
:102CC00079858A859B850E94C600DC01CB019F83A4
:102CD0008E838E819F819B838A838A819B810197CA
:102CE000F1F79B838A830FC069897A898B899C89D4
:102CF0000E94C600DC01CB01888B88898983898189
:102D00008A95F1F78983FE01E555FF4F808188237D
:102D100009F0CDC9ABE3B0E0EBE3F0E080818D7F5B
:102D20008C93AAE3B0E0EAE3F0E08081806F8C93BB
:102D3000C555DF4F0FB6F894DEBF0FBECDBFCF91A4
:102D4000DF911F910F9108950F931F93DF93CF93FE
:102D5000CDB7DEB7C755D0400FB6F894DEBF0FBE73
:102D6000CDBFFE01E95AFF4F8083FE01ED5AFF4FB0
:102D700080E090E0A0EFB1E480839183A283B383ED
:102D80008E01015B1F4FFE01ED5AFF4F6081718183
:102D90008281938120E030E04AEF54E40E949C025B
:102DA000DC01CB01F80180839183A283B383FE0110
:102DB000E15BFF4F608171818281938120E030E08F
:102DC00040E85FE30E94A204882344F4FE01E35B31
:102DD000FF4F81E090E09183808364C0FE01E15B5E
:102DE000FF4F608171818281938120E03FEF4FE747
:102DF00057E40E94420418160CF043C0FE01ED5A3D
:102E0000FF4F608171818281938120E030E040E258
:102E100051E40E949C02DC01CB018E01035B1F4F39
:102E2000BC01CD010E94C600DC01CB01F8019183F9
:102E300080831FC0FE01E55BFF4F88EC90E091832B
:102E40008083FE01E55BFF4F808191810197F1F75F
:102E5000FE01E55BFF4F91838083DE01A35BBF4FE3
:102E6000FE01E35BFF4F80819181019711969C9356
:102E70008E93FE01E35BFF4F808191810097D1F635
:102E800027C08E01035B1F4FFE01E15BFF4F608196
:102E90007181828193810E94C600DC01CB01F8011F
:102EA00091838083DE01A75BBF4FFE01E35BFF4F91
:102EB000808191818D939C93FE01E75BFF4F808120
:102EC00091810197F1F7FE01E75BFF4F91838083CA
:102ED000AAE3B0E0EAE3F0E08081806F8C93AAE39C
:102EE000B0E0EAE3F0E0808184608C93AAE3B0E094
:102EF000EAE3F0E0808181608C93AAE3B0E0EAE34A
:102F0000F0E0808182608C93ABE3B0E0EBE3F0E033
:102F100080818F708C93ABE3B0E0EBE3F0E08081D5
:102F20008B7F8C93ABE3B0E0EBE3F0E080818D7FAF
:102F30008C93ABE3B0E0EBE3F0E080818E7F8C9389
:102F4000FE01EB5BFF4F8AE999E9A9E9BEE38083C3
:102F50009183A283B3838E010F5B1F4FFE01EB5B56
:102F6000FF4F60817181828193812BEA3AEA4AE2C4
:102F700050E40E949C02DC01CB01F8018083918324
:102F8000A283B383FE01EF5BFF4F60817181828179
:102F9000938120E030E040E85FE30E94A2048823B0
:102FA00034F481E0FE01E05CFF4F80839DC0FE01B0
:102FB000EF5BFF4F608171818281938120E030E07F
:102FC0004FE753E40E94420418160CF07EC0FE0145
:102FD000EB5BFF4F608171818281938120E030E063
:102FE0004AE754E40E949603DC01CB018CAF9DAF0D
:102FF000AEAFBFAF6CAD7DAD8EAD9FAD20E030E02C
:103000004AEF54E40E949C02DC01CB0188AF99AFE7
:10301000AAAFBBAF68AD79AD8AAD9BAD20E030E023
:1030200040E85FE30E94A20488232CF481E090E052
:103030009FAB8EAB3FC068AD79AD8AAD9BAD20E054
:103040003FEF4FE757E40E94420418164CF56CAD71
:103050007DAD8EAD9FAD20E030E040E251E40E94B6
:103060009C02DC01CB01BC01CD010E94C600DC0149
:10307000CB019FAB8EAB0FC088EC90E09DAB8CABCF
:103080008CA99DA90197F1F79DAB8CAB8EA99FA947
:1030900001979FAB8EAB8EA99FA9009769F72DC0B2
:1030A00068AD79AD8AAD9BAD0E94C600DC01CB0155
:1030B0009FAB8EAB8EA99FA99BAB8AAB8AA99BA91C
:1030C0000197F1F79BAB8AAB18C0FE01EF5BFF4F96
:1030D00060817181828193810E94C600DC01CB01F5
:1030E000FE01E05CFF4F8083FE01E05CFF4F8081CA
:1030F00089AB89A98A95F1F789ABABE3B0E0EBE343
:10310000F0E0808184608C93ABE3B0E0EBE3F0E02F
:10311000808180628C9380E090E0A0E8BFE38DA77F
:103120009EA7AFA7B8AB6DA57EA58FA598A92BEAE2
:103130003AEA4AE250E40E949C02DC01CB0189A7F2
:103140009AA7ABA7BCA769A57AA58BA59CA520E0EB
:1031500030E040E85FE30E94A20488231CF481E091
:1031600088A791C069A57AA58BA59CA520E030E031
:103170004FE753E40E94420418160CF07BC06DA583
:103180007EA58FA598A920E030E04AE754E40E948C
:103190009603DC01CB018CA39DA3AEA3BFA36CA1BE
:1031A0007DA18EA19FA120E030E04AEF54E40E946F
:1031B0009C02DC01CB0188A399A3AAA3BBA368A1AD
:1031C00079A18AA19BA120E030E040E85FE30E9462
:1031D000A20488232CF481E090E09F8F8E8F3FC063
:1031E00068A179A18AA19BA120E03FEF4FE757E4B6
:1031F0000E94420418164CF56CA17DA18EA19FA1DE
:1032000020E030E040E251E40E949C02DC01CB016E
:10321000BC01CD010E94C600DC01CB019F8F8E8FC7
:103220000FC088EC90E09D8F8C8F8C8D9D8D0197C9
:10323000F1F79D8F8C8F8E8D9F8D01979F8F8E8F35
:103240008E8D9F8D009769F724C068A179A18AA10E
:103250009BA10E94C600DC01CB019F8F8E8F8E8DBB
:103260009F8D9B8F8A8F8A8D9B8D0197F1F79B8F06
:103270008A8F0FC069A57AA58BA59CA50E94C60060
:10328000DC01CB0188A788A5898F898D8A95F1F704
:10329000898FABE3B0E0EBE3F0E080818B7F8C9330
:1032A00080E090E0A0E8BFE38D8B9E8BAF8BB88F62
:1032B0006D897E898F89988D2BEA3AEA4AE250E43B
:1032C0000E949C02DC01CB01898B9A8BAB8BBC8B5F
:1032D00069897A898B899C8920E030E040E85FE346
:1032E0000E94A20488231CF481E0888B91C0698924
:1032F0007A898B899C8920E030E04FE753E40E9473
:10330000420418160CF07BC06D897E898F89988DD8
:1033100020E030E04AE754E40E949603DC01CB0150
:103320008C879D87AE87BF876C857D858E859F85C1
:1033300020E030E04AEF54E40E949C02DC01CB0123
:1033400088879987AA87BB87688579858A859B85C1
:1033500020E030E040E85FE30E94A20488232CF4E0
:1033600081E090E09F838E833FC0688579858A8560
:103370009B8520E03FEF4FE757E40E944204181678
:103380004CF56C857D858E859F8520E030E040E2A0
:1033900051E40E949C02DC01CB01BC01CD010E94E2
:1033A000C600DC01CB019F838E830FC088EC90E0C8
:1033B0009D838C838C819D810197F1F79D838C8304
:1033C0008E819F8101979F838E838E819F8100973D
:1033D00069F724C0688579858A859B850E94C60027
:1033E000DC01CB019F838E838E819F819B838A83A7
:1033F0008A819B810197F1F79B838A830FC069893A
:103400007A898B899C890E94C600DC01CB01888B5C
:103410008889898389818A95F1F789830E94080FB9
:10342000FE01E95AFF4F80818C6060E00E94BC0978
:1034300088E260E00E94BC0980E060E00E94FA1A25
:10344000C95ADF4F0FB6F894DEBF0FBECDBFCF9184
:10345000DF911F910F910895DF93CF9300D00F92CA
:10346000CDB7DEB79B838A8330C0EA81FB81808140
:10347000853201F58A819B8101969B838A83EA814B
:10348000FB818081805389838981882344F08981ED
:1034900088302CF4898161E00E94BC0911C085E26A
:1034A00061E00E94BC09EA81FB81808161E00E94A9
:1034B000BC0906C0EA81FB81808161E00E94BC09F1
:1034C0008A819B8101969B838A83EA81FB8180812B
:1034D000882359F60F900F900F90CF91DF910895A8
:1034E000DF93CF93CDB7DEB72D970FB6F894DEBF3D
:1034F0000FBECDBF9B878A877D876C8785E0FE01E5
:103500003596DF01282F1D922A95E9F784E090E097
:103510009C838B831A8219821EC0EB81FC818A8571
:103520009B852AE030E0B9010E947428282FCE0143
:103530000596E80FF91F20838A859B852AE030E0F5
:10354000B9010E947428CB019B878A878B819C815B
:1035500001979C838B838A859B850097F1F68C85E8
:103560009D85AFEF8F3F9A0789F405C089819A81C5
:1035700001969A83898329813A81CE010596FC01BF
:10358000E20FF31F8081882389F308C085E090E073
:103590002C853D85821B930B9A8389838A859B8525
:1035A000992324F48DE261E00E94BC0989819A810B
:1035B0009C838B8311C02B813C81CE010596FC013D
:1035C000E20FF31F8081805D61E00E94BC098B8166
:1035D0009C8101969C838B838B819C818530910596
:1035E00054F32D960FB6F894DEBF0FBECDBFCF912A
:1035F000DF910895DF93CF9300D000D0CDB7DEB731
:1036000089836A838981843160F58A81282F30E03B
:103610003C832B838B819C818130910581F02B81B0
:103620003C8122303105B4F08B819C818230910540
:1036300051F02B813C812330310549F00BC0898149
:103640008064898307C089818C5E898303C08981F6
:103650008C5A8983898180688983898160E00E948E
:10366000BC090F900F900F900F90CF91DF910895AC
:10367000DF93CF9300D000D0CDB7DEB78A836B83C2
:103680004C838A816B810E94FA1A80E389838C8142
:1036900082958F708A3030F48C8182958F70805D36
:1036A000898305C08C8182958F70895C898389812B
:1036B00061E00E94BC090E94080F8C81882F90E075
:1036C0008F7090708A3091052CF48C818F70805DA2
:1036D000898304C08C818F70895C8983898161E0D2
:1036E0000E94BC090E94080F0F900F900F900F903E
:1036F000CF91DF9108950F931F93DF93CF93CDB7B1
:10370000DEB7C25DD0400FB6F894DEBF0FBECDBFAE
:10371000FE01E958FF4F80E090E0A0E0B0E0808338
:103720009183A283B383A1E3B0E0E1E3F0E0808181
:1037300088618C93A1E3B0E0E1E3F0E080818F7BCE
:103740008C93A2E3B0E0E2E3F0E0808180648C93AC
:10375000A2E3B0E0E2E3F0E0808188608C93A2E332
:10376000B0E0E2E3F0E080818F7E8C93A1E3B0E0F3
:10377000E1E3F0E0808180688C93FE01EB58FF4F1D
:103780001082FE01ED58FF4F81E090E0918380832D
:10379000FE01EF58FF4F11821082CE0181569F4FDC
:1037A000CC53DF4F99838883C45CD04022E032E061
:1037B000CA53DF4F39832883C65CD04035E0C853F5
:1037C000DF4F3883C85CD040CA53DF4FE881F981AE
:1037D000C65CD0400080CA53DF4F28813981C65C67
:1037E000D0402F5F3F4FCA53DF4F39832883C65CD9
:1037F000D040CC53DF4FE881F981C45CD0400082D7
:10380000CC53DF4F28813981C45CD0402F5F3F4FBC
:10381000CC53DF4F39832883C45CD040C853DF4F7B
:103820003881C85CD0403150C853DF4F3883C85C02
:10383000D040C853DF4F8881C85CD040882321F630
:10384000CE018C559F4FC753DF4F99838883C95C46
:10385000D040EDEFF1E0C553DF4FF983E883CB5C57
:10386000D040F5E0C353DF4FF883CD5CD040C55363
:10387000DF4FE881F981CB5CD0400080C553DF4F3A
:1038800028813981CB5CD0402F5F3F4FC553DF4F3C
:1038900039832883CB5CD040C753DF4FE881F9815F
:1038A000C95CD0400082C753DF4F28813981C95C91
:1038B000D0402F5F3F4FC753DF4F39832883C95C08
:1038C000D040C353DF4F3881CD5CD0403150C3531B
:1038D000DF4F3883CD5CD040C353DF4F8881CD5C50
:1038E000D040882321F6CE0187559F4FC253DF4F2A
:1038F00099838883CE5CD040E8EFF1E0C053DF4F7E
:10390000F983E883C05DD040F5E0CE52DF4FF88305
:10391000C25DD040C053DF4FE881F981C05DD04027
:103920000080C053DF4F28813981C05DD0402F5FB8
:103930003F4FC053DF4F39832883C05DD040C2530F
:10394000DF4FE881F981CE5CD0400082C253DF4F67
:1039500028813981CE5CD0402F5F3F4FC253DF4F6B
:1039600039832883CE5CD040CE52DF4F3881C25D90
:10397000D0403150CE52DF4F3883C25DD040CE525E
:10398000DF4F8881C25DD040882321F6FE01E359D4
:10399000FF4F80E090E0A8E4B2E480839183A283AB
:1039A000B3838E0107591F4FFE01E359FF4F60811A
:1039B00071818281938120E030E04AEF54E40E94DB
:1039C0009C02DC01CB01F80180839183A283B38345
:1039D000FE01E759FF4F608171818281938120E070
:1039E00030E040E85FE30E94A204882344F4FE0133
:1039F000E959FF4F81E090E09183808364C0FE012C
:103A0000E759FF4F608171818281938120E03FEF10
:103A10004FE757E40E94420418160CF043C0FE0121
:103A2000E359FF4F608171818281938120E030E012
:103A300040E251E40E949C02DC01CB018E01095955
:103A40001F4FBC01CD010E94C600DC01CB01F80173
:103A5000918380831FC0FE01EB59FF4F88EC90E0FB
:103A600091838083FE01EB59FF4F80819181019703
:103A7000F1F7FE01EB59FF4F91838083DE01A959D5
:103A8000BF4FFE01E959FF4F808191810197119647
:103A90009C938E93FE01E959FF4F8081918100979D
:103AA000D1F627C08E0109591F4FFE01E759FF4F7C
:103AB00060817181828193810E94C600DC01CB010B
:103AC000F80191838083DE01AD59BF4FFE01E959B2
:103AD000FF4F808191818D939C93FE01ED59FF4FA3
:103AE000808191810197F1F7FE01ED59FF4F91839C
:103AF000808381E00E94A41682E060E00E94FA1AAE
:103B000080E690E00E942C1A85E061E00E94FA1A9B
:103B10008CE690E00E942C1A0E9430280E94A82572
:103B2000FE01E15AFF4F80E090E8ABEBB4E4808304
:103B30009183A283B3838E01055A1F4FFE01E15A80
:103B4000FF4F608171818281938120E030E04AEFF4
:103B500054E40E949C02DC01CB01F8018083918334
:103B6000A283B383FE01E55AFF4F60817181828198
:103B7000938120E030E040E85FE30E94A2048823C4
:103B800044F4FE01E75AFF4F81E090E09183808387
:103B900064C0FE01E55AFF4F60817181828193818B
:103BA00020E03FEF4FE757E40E94420418160CF064
:103BB00043C0FE01E15AFF4F608171818281938190
:103BC00020E030E040E251E40E949C02DC01CB01A5
:103BD0008E01075A1F4FBC01CD010E94C600DC01B7
:103BE000CB01F801918380831FC0FE01E95AFF4F8A
:103BF00088EC90E091838083FE01E95AFF4F808139
:103C000091810197F1F7FE01E95AFF4F918380837B
:103C1000DE01A75ABF4FFE01E75AFF4F8081918115
:103C2000019711969C938E93FE01E75AFF4F808176
:103C300091810097D1F627C08E01075A1F4FFE01D0
:103C4000E55AFF4F60817181828193810E94C60095
:103C5000DC01CB01F80191838083DE01AB5ABF4FB9
:103C6000FE01E75AFF4F808191818D939C93FE0165
:103C7000EB5AFF4F808191810197F1F7FE01EB5ADA
:103C8000FF4F9183808381E060E00E94BC0987E35D
:103C90000E940626FE01EA58FF4F8083FE01EF5A7C
:103CA000FF4F80E090E0AAE7B4E480839183A28391
:103CB000B3838E01035B1F4FFE01EF5AFF4F6081FC
:103CC00071818281938120E030E04AEF54E40E94C8
:103CD0009C02DC01CB01F80180839183A283B38332
:103CE000FE01E35BFF4F608171818281938120E05F
:103CF00030E040E85FE30E94A204882344F4FE0120
:103D0000E55BFF4F81E090E09183808364C0FE011A
:103D1000E35BFF4F608171818281938120E03FEFFF
:103D20004FE757E40E94420418160CF043C0FE010E
:103D3000EF5AFF4F608171818281938120E030E0F2
:103D400040E251E40E949C02DC01CB018E01055B44
:103D50001F4FBC01CD010E94C600DC01CB01F80160
:103D6000918380831FC0FE01E75BFF4F88EC90E0EA
:103D700091838083FE01E75BFF4F808191810197F2
:103D8000F1F7FE01E75BFF4F91838083DE01A55BC6
:103D9000BF4FFE01E55BFF4F808191810197119636
:103DA0009C938E93FE01E55BFF4F8081918100978C
:103DB000D1F628C08E01055B1F4FFE01E35BFF4F6C
:103DC00060817181828193810E94C600DC01CB01F8
:103DD000F80191838083DE01A95BBF4FFE01E55BA3
:103DE000FF4F8081918111969C938E93FE01E95B38
:103DF000FF4F808191810197F1F7FE01E95BFF4F51
:103E000091838083FE01EA58FF4F8081823989F4D3
:103E100082E060E00E94FA1A82E790E00E942C1A89
:103E200084E061E00E94FA1A81E890E00E942C1A76
:103E300025C0FE01EA58FF4F8081813931F0FE0133
:103E4000EA58FF4F8081803989F482E060E00E9467
:103E5000FA1A8AE890E00E942C1A84E061E00E943D
:103E6000FA1A81E890E00E942C1A08C080E060E015
:103E70000E94FA1A89E990E00E942C1AFE01ED5B7B
:103E8000FF4F80E090E8ABEBB4E480839183A283A2
:103E9000B3838E01015C1F4FFE01ED5BFF4F60811C
:103EA00071818281938120E030E04AEF54E40E94E6
:103EB0009C02DC01CB01F80180839183A283B38350
:103EC000FE01FF96608171818281938120E030E064
:103ED00040E85FE30E94A20488232CF481E090E094
:103EE0009EAF8DAF46C0FE01FF96608171818281D9
:103EF000938120E03FEF4FE757E40E9442041816F9
:103F000064F5FE01ED5BFF4F6081718182819381D9
:103F100020E030E040E251E40E949C02DC01CB0151
:103F2000BC01CD010E94C600DC01CB019EAF8DAF6C
:103F30000FC088EC90E09CAF8BAF8BAD9CAD019730
:103F4000F1F79CAF8BAF8DAD9EAD01979EAF8DAF5E
:103F50008DAD9EAD009769F716C0FE01FF9660819A
:103F60007181828193810E94C600DC01CB019EAFEA
:103F70008DAF8DAD9EAD9AAF89AF89AD9AAD0197EA
:103F8000F1F79AAF89AF81E060E00E94BC09FE01C1
:103F9000ED58FF4F80819181009709F041C1FE01EA
:103FA000E958FF4F80819181A281B381FE01E558DC
:103FB000FF4FBC01CD0142E022E08F010E94D228D8
:103FC0000E941608DC01CB01FE01E958FF4F8083F7
:103FD0009183A283B38380E060E00E94FA1A89EAA9
:103FE00090E00E942C1A8AE060E00E94FA1ACE014A
:103FF00085589F4F0E942C1AFE01E958FF4F60819F
:1040000071818281938120E030E040EA50E40E9497
:10401000D20418160CF487C0A2E3B0E0E2E3F0E0AB
:10402000808180618C93A2E3B0E0E2E3F0E08081E4
:10403000877F8C9380E090E4ACE9B5E48DAB9EABD8
:10404000AFABB8AF6DA97EA98FA998AD20E030E0E5
:104050004AEF54E40E949C02DC01CB0189AB9AAB8D
:10406000ABABBCAB69A97AA98BA99CA920E030E0D5
:1040700040E85FE30E94A20488232CF481E090E0F2
:1040800098AB8FA73FC069A97AA98BA99CA920E00A
:104090003FEF4FE757E40E94420418164CF56DA914
:1040A0007EA98FA998AD20E030E040E251E40E9463
:1040B0009C02DC01CB01BC01CD010E94C600DC01E9
:1040C000CB0198AB8FA70FC088EC90E09EA78DA77F
:1040D0008DA59EA50197F1F79EA78DA78FA598A9FD
:1040E000019798AB8FA78FA598A9009769F714C07F
:1040F00069A97AA98BA99CA90E94C600DC01CB0101
:1041000098AB8FA78FA598A99CA78BA78BA59CA5DB
:104110000197F1F79CA78BA7FE01EF58FF4F81E0B5
:1041200090E091838083FE01ED58FF4F8081918163
:10413000009709F075C0FE01EF58FF4F8081918113
:10414000009709F46DC0FE01E958FF4F608171814D
:104150008281938120E030E040EE50E40E947204BE
:1041600088230CF45DC0A8E3B0E0E8E3F0E08081D0
:10417000897F8C9310920C0210920D0210920E0205
:1041800010920F021092100210921102109212025D
:10419000109213021092140210921502109216023D
:1041A00010921702109218021092190210921A021D
:1041B00010921B0281E060E00E94BC09FE01ED58F4
:1041C000FF4F81E090E091838083FE01EB58FF4F29
:1041D0001082FE01EF58FF4F11821082A7E3B0E07A
:1041E000E7E3F0E0808186608C93A2E3B0E0E2E355
:1041F000F0E0808188608C93A2E3B0E0E2E3F0E03D
:1042000080818F7E8C93E3E5F0E01082E3E5F0E0BF
:104210001082E9E5F0E01082E2E5F0E01082F89427
:10422000FE01ED58FF4F80819181009709F4AFCED8
:1042300081E060E00E94BC0981E060E00E94FA1A1F
:1042400085EB90E00E942C1A9E0121573F4F82E59A
:10425000B9010E943826FE01EA58FF4F8083FE0113
:10426000EA58FF4F8081813009F091CECE0181570D
:104270009F4F0E94D427FE01EA58FF4F8083FE0122
:10428000EA58FF4F8081813009F072C2A2E3B0E0AA
:10429000E2E3F0E0808180688C9380E090E0AAEF18
:1042A000B3E48FA398A7A9A7BAA76FA178A589A5FA
:1042B0009AA520E030E04AEF54E40E949C02DC0121
:1042C000CB018BA39CA3ADA3BEA36BA17CA18DA1AD
:1042D0009EA120E030E040E85FE30E94A204882332
:1042E0002CF481E090E09AA389A33FC06BA17CA14C
:1042F0008DA19EA120E03FEF4FE757E40E944204CA
:1043000018164CF56FA178A589A59AA520E030E094
:1043100040E251E40E949C02DC01CB01BC01CD01D2
:104320000E94C600DC01CB019AA389A30FC088ECD0
:1043300090E098A38F8F8F8D98A10197F1F798A3A4
:104340008F8F89A19AA101979AA389A389A19AA184
:10435000009769F714C06BA17CA18DA19EA10E945A
:10436000C600DC01CB019AA389A389A19AA19E8FE3
:104370008D8F8D8D9E8D0197F1F79E8F8D8FA2E38E
:10438000B0E0E2E3F0E080818F778C9381E060E041
:104390000E94BC09FE01EA58FF4F108244C0FE0192
:1043A000EA58FF4F8081282F30E0CE0181579F4F80
:1043B000FC01E20FF31F8081282F30E000D000D0F5
:1043C00000D0EDB7FEB73196CE0182559F4F918355
:1043D000808384EC90E093838283358324830E94DE
:1043E000F3282DB73EB72A5F3F4F0FB6F8943EBF74
:1043F0000FBE2DBFFE01EA58FF4F8081882F90E04D
:10440000880F991F60E00E94FA1ACE0182559F4FD3
:104410000E942C1ADE01AA58BF4FFE01EA58FF4F36
:1044200080818F5F8C93FE01EA58FF4F8081853039
:1044300008F4B5CF80E090E0AAEFB4E4898F9A8FBA
:10444000AB8FBC8F698D7A8D8B8D9C8D20E030E099
:104450004AEF54E40E949C02DC01CB018D8B9E8BC1
:10446000AF8BB88F6D897E898F89988D20E030E081
:1044700040E85FE30E94A20488232CF481E090E0EE
:104480009C8B8B8B3FC06D897E898F89988D20E0B6
:104490003FEF4FE757E40E94420418164CF5698D30
:1044A0007A8D8B8D9C8D20E030E040E251E40E94BB
:1044B0009C02DC01CB01BC01CD010E94C600DC01E5
:1044C000CB019C8B8B8B0FC088EC90E09A8B898BF7
:1044D00089899A890197F1F79A8B898B8B899C89B5
:1044E00001979C8B8B8B8B899C89009769F714C0F3
:1044F0006D897E898F89988D0E94C600DC01CB0171
:104500009C8B8B8B8B899C89988B8F878F859889C7
:104510000197F1F7988B8F87FE01EB58FF4F81E0F1
:104520008083FE01EA58FF4F108225C0FE01EA5841
:10453000FF4F8081282F30E0CE0181569F4FFC0134
:10454000E20FF31F4081FE01EA58FF4F8081282FC0
:1045500030E0CE0181579F4FFC01E20FF31F8081B5
:10456000481779F4DE01AA58BF4FFE01EA58FF4F01
:1045700080818F5F8C93FE01EA58FF4F80818530E8
:10458000A8F2FE01EA58FF4F8081853029F4FE0130
:10459000EB58FF4F82E08083FE01EA58FF4F808195
:1045A0008530D9F1FE01EA58FF4F108225C0FE0187
:1045B000EA58FF4F8081282F30E0CE018C559F4F65
:1045C000FC01E20FF31F4081FE01EA58FF4F80819A
:1045D000282F30E0CE0181579F4FFC01E20FF31FDF
:1045E0008081481779F4DE01AA58BF4FFE01EA58CE
:1045F000FF4F80818F5F8C93FE01EA58FF4F8081CF
:104600008530A8F2FE01EA58FF4F8081853029F4F9
:10461000FE01EB58FF4F83E08083FE01EA58FF4F15
:1046200080818530D9F1FE01EA58FF4F108225C004
:10463000FE01EA58FF4F8081282F30E0CE018755D8
:104640009F4FFC01E20FF31F4081FE01EA58FF4F2C
:104650008081282F30E0CE0181579F4FFC01E20F6F
:10466000F31F8081481779F4DE01AA58BF4FFE017D
:10467000EA58FF4F80818F5F8C93FE01EA58FF4F0D
:1046800080818530A8F2FE01EA58FF4F8081853095
:1046900029F4FE01EB58FF4F84E08083FE01EB58C4
:1046A000FF4F8081E82FF0E0CE53DF4FF983E8839E
:1046B000C25CD040CE53DF4F28813981C25CD040EC
:1046C0002330310521F1CE53DF4F88819981C25CBF
:1046D000D0408430910569F1CE53DF4FE881F981F4
:1046E000C25CD040E230F105B1F581E060E00E94AB
:1046F000BC0983E061E00E94FA1A87EC90E00E9416
:104700002C1AFE01ED58FF4F118210823DC081E04E
:1047100060E00E94BC0983E061E00E94FA1A8DEC1F
:1047200090E00E942C1AFE01ED58FF4F118210827A
:104730002BC081E060E00E94BC0983E061E00E9440
:10474000FA1A83ED90E00E942C1AFE01ED58FF4FFB
:104750001182108219C081E060E00E94BC0980E0F3
:1047600061E00E94FA1A89ED90E00E942C1A0CC0B8
:1047700081E060E00E94BC0985E061E00E94FA1AD5
:104780008AEE90E00E942C1AFE01ED58FF4F8081C6
:104790009181009771F5A4E3B0E0E4E3F0E080815B
:1047A000806F8C93A7E3B0E0E7E3F0E08081866060
:1047B0008C93A8E3B0E0E8E3F0E0808182608C9322
:1047C000A3E5B0E0E3E5F0E080818C7B8C93A3E58A
:1047D000B0E0E3E5F0E0808185608C93A9E5B0E08E
:1047E000E9E5F0E0808181608C93E2E5F0E0108201
:1047F000789480E090E0AAEFB4E48B879C87AD8743
:10480000BE876B857C858D859E8520E030E04AEFF4
:1048100054E40E949C02DC01CB018F839887A98716
:10482000BA876F81788589859A8520E030E040E8F5
:104830005FE30E94A20488232CF481E090E09E8331
:104840008D833FC06F81788589859A8520E03FEF11
:104850004FE757E40E94420418164CF56B857C859F
:104860008D859E8520E030E040E251E40E949C026C
:10487000DC01CB01BC01CD010E94C600DC01CB01F3
:104880009E838D830FC088EC90E09C838B838B810B
:104890009C810197F1F79C838B838D819E81019789
:1048A0009E838D838D819E81009769F770CB6F8188
:1048B000788589859A850E94C600DC01CB019E839C
:1048C0008D838D819E819A83898389819A810197C5
:1048D000F1F79A8389835BCB1F920F920FB60F92E9
:1048E00011242F933F934F938F939F93AF93BF9335
:1048F000EF93FF93DF93CF93CDB7DEB780910C0298
:1049000090910D02A0910E02B0910F020196A11D8F
:10491000B11D80930C0290930D02A0930E02B093F0
:104920000F028091180290911902A0911A02B09181
:104930001B020196A11DB11D8093180290931902CC
:10494000A0931A02B0931B02809118029091190251
:10495000A0911A02B0911B0285369105A105B105FF
:1049600008F4E6C0109218021092190210921A026E
:1049700010921B028091100290911102A0911202DC
:10498000B09113028A309105A105B10548F0A8E362
:10499000B0E0E8E3F0E0908186E089278C93C8C01E
:1049A0008091100290911102A0911202B091130215
:1049B0000097A105B10509F06AC080911402909199
:1049C0001502A0911602B09117020196A11DB11D0A
:1049D0008093140290931502A0931602B0931702CD
:1049E0008091140290911502A0911602B0911702C5
:1049F0008A309105A105B105B0F1A8E3B0E0E8E384
:104A0000F0E080818D7F8C93A8E3B0E0E8E3F0E0F4
:104A1000808184608C938091100290911102A0910A
:104A20001202B09113020196A11DB11D80931002D4
:104A300090931102A0931202B093130225E330E089
:104A4000E5E3F0E08081482F4F7080911002909153
:104A50001102A0911202B09113028295807F842BE3
:104A6000F901808365C025E330E0E5E3F0E0808173
:104A7000482F4F708091140290911502A091160258
:104A8000B09117028295807F842BF90180838091F9
:104A9000100290911102A0911202B091130200979E
:104AA000A105B10509F444C0809110029091110252
:104AB000A0911202B09113020196A11DB11D809325
:104AC000100290931102A0931202B09313028091EE
:104AD000100290911102A0911202B09113028A303B
:104AE0009105A105B10580F0A8E3B0E0E8E3F0E0AE
:104AF000808186608C93A5E3B0E0E5E3F0E08081FF
:104B00008F7080698C9314C025E330E0E5E3F0E01A
:104B10008081482F4F708091100290911102A091D6
:104B20001202B09113028295807F842BF901808359
:104B3000CF91DF91FF91EF91BF91AF919F918F91B5
:104B40004F913F912F910F900FBE0F901F9018958E
:104B5000DF93CF930F92CDB7DEB70E942D268AE266
:104B60006DE80E94E1258BE26EE30E94E1258CE274
:104B70006EE10E94E1258DE260E00E94E12585E181
:104B800060E40E94E12581E16DE30E94E12584E17A
:104B90000E94062689838981882F90E08370907017
:104BA000009759F48981982F936084E1692F0E94BE
:104BB000E12584E10E94062689830F90CF91DF9141
:104BC0000895DF93CF9300D0CDB7DEB789836A8392
:104BD000A8E3B0E0E8E3F0E080818F7E8C938981E8
:104BE000882F90E0880F991F8E770E943F288A8136
:104BF0000E943F28A8E3B0E0E8E3F0E08081806114
:104C00008C930F900F90CF91DF910895DF93CF9306
:104C100000D0CDB7DEB78A83A8E3B0E0E8E3F0E0E8
:104C200080818F7E8C938A81882F90E0880F991FD6
:104C30008E7780680E943F2880E00E943F28898309
:104C4000A8E3B0E0E8E3F0E0808180618C938981A3
:104C50000F900F90CF91DF910895DF93CF93CDB751
:104C6000DEB781E06FE00E94E125CF91DF910895EA
:104C70000F931F93DF93CF93CDB7DEB728970FB66F
:104C8000F894DEBF0FBECDBF8E8378876F838DE033
:104C900067E00E94E125EF81F8858E8180832F8176
:104CA0003885EF81F885DE0112968CE0B90141E08C
:104CB0009F018D010E94772689838981813049F483
:104CC0008A819B81AC81BD8180319105A105B105AF
:104CD00011F083E08983898128960FB6F894DEBFAE
:104CE0000FBECDBFCF91DF911F910F9108950F930C
:104CF0001F93DF93CF93CDB7DEB764970FB6F894C9
:104D0000DEBF0FBECDBF8B877D876C874E87388B0C
:104D10002F871A8B098B83E08A87198618868B85E3
:104D2000282F30E03C8B2B8B8B899C898C30910514
:104D300051F0EB89FC89EE30F10549F482E1898775
:104D400080E1888704C087E7898780E3888784E0DB
:104D50000E9406268E838E81982F9F7784E0692F8C
:104D60000E94E1258AE00E9406268E838E81982F7C
:104D700090688AE0692F0E94E12581E060E00E944E
:104D8000E12519821A821B821C8217C029813A816F
:104D90008C859D85FC01E20FF31F908189E0692FCE
:104DA0000E94E12589819A81AB81BC810196A11D78
:104DB000B11D89839A83AB83BC838E85282F30E015
:104DC00040E050E089819A81AB81BC8182179307D2
:104DD000A407B507D8F281E06B850E94E1258B8599
:104DE0008C3059F48DE00E9406268E838E81982F98
:104DF00090688DE0692F0E94E12580ED97E0A0E0AA
:104E0000B0E089839A83AB83BC8384E00E9406264A
:104E10008E8389819A81AB81BC810197A109B109F7
:104E200089839A83AB83BC8389819A81AB81BC815E
:104E30000097A105B10561F08E81882F90E0817007
:104E40009070009729F48E81988589238823E9F250
:104E50008DE00E9406268D838D81982F9F778DE0AF
:104E6000692F0E94E12589819A81AB81BC810097DD
:104E7000A105B10509F48CC086E00E940626882FA2
:104E800090E08B719070009709F080C081E08A8774
:104E90009E8189858923882F90E081709070882376
:104EA00011F082E08A878B858C3009F071C08AE02E
:104EB0000E9406268E838CE00E94062687708F83D0
:104EC0008F818823D9F08E81882F90E001979C01F3
:104ED000220F331F220F331F220F331F8F81882F82
:104EE00090E0820F931FAA2797FDA095BA2FE9891A
:104EF000FA8980839183A283B38313C08E81882F24
:104F000090E0880F991F880F991F880F991FAA2773
:104F100097FDA095BA2FE989FA8980839183A283AE
:104F2000B3838E81882311F481E08E838E81813159
:104F300010F080E18E8319821A821B821C8217C0B6
:104F400029813A818F8598898C01020F131F89E08E
:104F50000E940626F801808389819A81AB81BC81F9
:104F60000196A11DB11D89839A83AB83BC838E8179
:104F7000282F30E040E050E089819A81AB81BC81EC
:104F800082179307A407B507D8F202C083E08A8787
:104F90008A8564960FB6F894DEBF0FBECDBFCF9161
:104FA000DF911F910F9108950F931F93DF93CF937C
:104FB000CDB7DEB729970FB6F894DEBF0FBECDBFD1
:104FC0009987888719828DE060E00E94E125E88555
:104FD000F98583E9808388859985FC01319680E293
:104FE000808328853985E885F985DE0114968CE073
:104FF000B90142E09F018D010E9477268B838B814E
:10500000813011F51A820FC08A81282F30E08885FF
:105010009985FC01E20FF31F90818981892789839B
:105020008A818F5F8A838A81843070F38A81282FF6
:1050300030E088859985FC01E20FF31F908189811A
:10504000981711F083E08B838B8129960FB6F89423
:10505000DEBF0FBECDBFCF91DF911F910F9108959D
:10506000DF93CF93CDB7DEB7E7E3F0E080EB80834B
:10507000EDE2F0E081E58083CF91DF910895DF9349
:10508000CF930F92CDB7DEB78983EFE2F0E089814D
:105090008083EEE2F0E080818823DCF7EFE2F0E04D
:1050A00080810F90CF91DF910895629FD001739F0F
:1050B000F001829FE00DF11D649FE00DF11D929FB4
:1050C000F00D839FF00D749FF00D659FF00D9927F3
:1050D000729FB00DE11DF91F639FB00DE11DF91F17
:1050E000BD01CF011124089597FB092E07260AD090
:1050F00077FD04D00CD006D000201AF4709561958D
:105100007F4F0895F6F7909581959F4F0895AA1BBC
:10511000BB1B51E107C0AA1FBB1FA617B70710F0A2
:10512000A61BB70B881F991F5A95A9F780959095D4
:10513000BC01CD0108952F923F924F925F926F92E2
:105140007F928F929F92AF92BF92CF92DF92EF9217
:10515000FF920F931F93CF93DF93CDB7DEB7CA1B98
:10516000DB0B0FB6F894DEBF0FBECDBF09942A88C3
:10517000398848885F846E847D848C849B84AA846B
:10518000B984C884DF80EE80FD800C811B81AA81F8
:10519000B981CE0FD11D0FB6F894DEBF0FBECDBFC3
:1051A000ED010895EF92FF920F931F93F22FF02ECF
:1051B00047FD02C0E4E001C0E4E1242F332727FDCE
:1051C000309537FF03C0309521953F4F4F2D512F1C
:1051D0000F2FEE2E0E94F42A8F2D912F1F910F91E9
:1051E000FF90EF900895AEE0B0E0E9EFF8E20C94A4
:1051F000A9280D891E8986E08C831A8309838FEF85
:105200009FE79E838D839E01275E3F4FCE010196CF
:105210006F89788DA9010E9417292F813885020F87
:10522000131FF80110822E96E4E00C94C528ABE021
:10523000B0E0EDE1F9E20C949B283C012B015A010E
:10524000FC0117821682838181FD03C06FEF7FEF1F
:10525000C6C19AE0892E1E010894211C311CF3015D
:105260002381F20123FD859123FF81912F01882362
:1052700009F4B2C1853239F423FD859123FF819170
:105280002F01853229F490E0B3010E94442DE7CF2D
:10529000982FFF24EE249924FFE1FF15D0F09B32D4
:1052A00069F09C3228F4903259F0933291F40EC098
:1052B0009D3249F0903369F441E024C052E0F52A70
:1052C00084E0F82A28C098E0F92A25C0E0E1FE2A07
:1052D00022C0F7FC29C0892F80538A3070F4F6FE73
:1052E00005C0989C902C1124980E15C0E89CE02CC9
:1052F0001124E80EF0E2FF2A0EC09E3229F4F6FCDB
:105300006BC140E4F42A07C09C3619F450E8F52A32
:1053100002C0983649F4F20123FD959123FF919143
:105320002F01992309F0B8CF892F8554833018F0C5
:105330008052833038F444E050E0A40EB51E5FE3A1
:1053400059830FC0933631F0933779F0933509F0D4
:1053500056C020C0F5018081898342E050E0A40E50
:10536000B51E610101E010E012C0F501C080D180DE
:10537000F6FC03C06FEF7FEF02C0692D70E042E0E2
:1053800050E0A40EB51EC6010E94392D8C015FE7C6
:10539000F52214C0F501C080D180F6FC03C06FEF88
:1053A0007FEF02C0692D70E042E050E0A40EB51E10
:1053B000C6010E942E2D8C0150E8F52AF3FE07C08D
:1053C0001AC080E290E0B3010E94442DEA948E2D31
:1053D00090E008171907A8F30EC0F601F7FC8591B5
:1053E000F7FE81916F0190E0B3010E94442DE1101E
:1053F000EA94015010400115110579F7EAC094367E
:1054000011F0993669F5F7FE08C0F5012081318168
:105410004281538184E090E00AC0F501808191814E
:105420009C01442737FD4095542F82E090E0A80E60
:10543000B91E9FE6F92257FF09C050954095309557
:1054400021953F4F4F4F5F4FE0E8FE2ACA01B90157
:10545000A1012AE030E00E94702DD82ED21840C061
:10546000953729F41F2D1F7E2AE030E01DC01F2D27
:10547000197F9F3661F0903720F4983509F0ACC061
:105480000FC0903739F0983709F0A6C004C028E063
:1054900030E00AC0106114FD146020E130E004C067
:1054A00014FD166020E132E017FF08C0F5016081AD
:1054B00071818281938144E050E008C0F5018081D0
:1054C0009181BC0180E090E042E050E0A40EB51E66
:1054D000A1010E94702DD82ED2188FE7F82EF1224C
:1054E000F6FE0BC05EEFF522D91438F4F4FE07C0C7
:1054F000F2FC05C08FEEF82202C01D2D01C0192D4F
:10550000F4FE0DC0FE01ED0DF11D8081803319F414
:1055100099EEF92208C01F5FF2FE05C003C08F2D6F
:10552000867809F01F5F0F2DF3FC14C0F0FE0FC04A
:105530001E1510F09D2C0BC09D2C9E0C911A1E2D3B
:1055400006C080E290E0B3010E94442D1F5F1E154B
:10555000C0F304C01E1510F4E11A01C0EE2404FFCC
:105560000FC080E390E0B3010E94442D02FF1DC0F4
:1055700001FD03C088E790E00EC088E590E00BC015
:10558000802F867891F001FF02C08BE201C080E29B
:10559000F7FC8DE290E0B3010E94442D06C080E349
:1055A00090E0B3010E94442D9A94D914C0F3DA9488
:1055B000F101ED0DF11D808190E0B3010E94442DB9
:1055C000DD20A9F706C080E290E0B3010E94442DDF
:1055D000EA94EE20C1F743CEF30166817781CB01D7
:1055E0002B96E2E10C94B728A9E0B0E0EAEFFAE2EA
:1055F0000C949F286A01122FA02EBE2C2BE320179B
:1056000018F42CE3922E02C0902E9394AE014F5FBB
:105610005F4F27E0092D0E94562CBC018981E82E9E
:10562000FF24C70189709070019711F4ADE209C0A1
:10563000B1FE02C0ABE205C0B0FC02C0A0E001C0F8
:10564000A0E2E3FE3BC0AA2311F423E001C024E062
:10565000211710F020E002C0121B212FEB2CB4FE0A
:1056600002C0322F0AC0F601322F80E202C08193BD
:1056700031503323E1F7C20ED11CAA2319F0F601F1
:10568000A1936F01F6013196E2FE05C09EE4D601BA
:105690009C9381E404C09EE6D6019C9381E611961A
:1056A0008C9391833296DF01832F90E202C09D9309
:1056B00081508823E1F7E30FF11D40C0E2FE42C0B4
:1056C000AA2311F423E001C024E0211710F020E008
:1056D00002C0121B212FEB2CB4FE02C0922F0AC075
:1056E000F601922F80E202C0819391509923E1F755
:1056F000C20ED11CAA2319F0F601A1936F01F60185
:105700003196E2FE08C089E4D6018C938EE41196AE
:105710008C9386E407C089E6D6018C938EE61196B9
:105720008C9386E681833296DF01892F20E202C0C6
:105730002D9381508823E1F7E90FF11D10822EEFA0
:105740003FEFAFC0161617061CF041E050E003C053
:10575000AB014F5F5F4FAA2019F480E090E003C0D7
:105760008A2D90E0019620E030E0AA2311F021E09C
:1057700030E0240F351F280F391F812F90E02817A4
:10578000390714F020E002C0121B212F4B2D50E0EE
:10579000CA0180719070B4FC0DC0B3FC0BC0F6015F
:1057A000322F40E202C0419331503323E1F7C20E61
:1057B000D11C01C0322FAA2319F0F601A1936F0169
:1057C000892B11F0132F0AC0F601132F80E302C0BA
:1057D000819311501123E1F7C30ED11C092D060F3F
:1057E000BA8090E1892E912C8E209F20E4FE04C087
:1057F000F1E3BF1609F40150101614F001E003C0E4
:10580000093008F008E09B0177FF02C020E030E09B
:10581000CB010196821B930BFE013196E80FF91F15
:105820008EE2F82E3B01601A71088A2D90E0442721
:105830005527481B590B8FEF2F3F380719F4D60116
:10584000FD926D01621773072CF06216730614F453
:10585000808101C080E32150304031962417350704
:1058600024F0D6018D936D01E6CF2617370749F452
:10587000B5E3BB1528F0BB1621F48114910409F49B
:1058800081E3F6018193D601812F90E202C09C93BF
:10589000815011968823D9F7E10FF11D108220E085
:1058A00030E0C9012996EEE00C94BB28283008F0BE
:1058B00027E03327DA01990F311D87FD91600096AB
:1058C0006105710539F432602E5F3D9330E32A950E
:1058D000E1F708959F3F30F080387105610509F0C8
:1058E0003C5F3C5F3D93913008F08068911DDF93F1
:1058F000CF931F930F93FF92EF92192F987F969556
:10590000E92F96959695E90FFF27E255FF4F9927C6
:105910003327EE24FF24A701E7010590089407949C
:1059200028F4360FE71EF81E491F511D660F771F1A
:10593000881F991F0694A1F70590079428F4E70E95
:10594000F81E491F561FC11D770F881F991F661F1C
:105950000694A1F70590079428F4F80E491F561FE6
:10596000C71FD11D880F991F661F771F0694A1F7C7
:105970000590079420F4490F561FC71FD81F990F91
:10598000661F771F881F0694A9F7849110951770DA
:1059900041F0D695C79557954795F794E7941A9592
:1059A000C1F7E4E5F0E068941590159135916591A3
:1059B000959105907FE27395E118F10A430B560B20
:1059C000C90BD009C0F7E10CF11E431F561FC91FB8
:1059D000D01D7EF4703311F48A95E6CFE89401501F
:1059E00030F0080F0AF40027021708F4202F23953F
:1059F000022F7A3328F079E37D932A95E9F710C0D6
:105A00007D932A9589F6069497956795379517950E
:105A10001794E118F10A430B560BC90BD00998F003
:105A200023957E9173957A3308F070E37C9320136D
:105A3000B8F77E9170617D9330F0839571E37D932B
:105A400070E32A95E1F71124EF90FF900F911F91D9
:105A5000CF91DF91992787FD90950895FC010590DE
:105A6000615070400110D8F7809590958E0F9F1F60
:105A70000895FC016150704001900110D8F78095A5
:105A800090958E0F9F1F08950F931F93CF93DF93D1
:105A90008C01EB018B8181FF1BC082FF0DC02E8129
:105AA0003F818C819D812817390764F4E881F98151
:105AB0000193F983E88306C0E885F985802F09956D
:105AC000892B31F48E819F8101969F838E8302C042
:105AD0000FEF1FEFC801DF91CF911F910F91089534
