:100000000C942A000C9447000C9447000C94470071
:100010000C9447000C9447000C9447000C94470044
:100020000C9447000C940E0D0C9447000C94470060
:100030000C9447000C9447000C9447000C94470024
:100040000C9447000C9447000C9447000C94470014
:100050000C94470011241FBECFE5D8E0DEBFCDBF12
:1000600012E0A0E6B0E0EEE4F4E502C005900D92E7
:10007000A430B107D9F712E0A4E0B2E001C01D92AC
:10008000AE33B107E1F70E9409240C94252A0C94A1
:100090000000EF92FF920F931F937B018C0120E0F1
:1000A00030E040E05FE40E94F50388238CF0C80153
:1000B000B70120E030E040E05FE40E94C1010E940F
:1000C000B3049B01AC01205030404040504806C072
:1000D000C801B7010E94B3049B01AC01B901CA0178
:1000E0001F910F91FF90EF900895A0E0B0E0EBE733
:1000F000F0E00C94A929DC012B01FA019C919230CB
:1001000008F439C1EB018881823008F433C194309E
:1001100069F4843009F02FC111969C91119789815F
:10012000981709F428C1A4EAB0E025C1843009F485
:1001300021C18230A9F4923009F01DC19A01AD01AC
:1001400088E0EA010990AE01E90109929E0181501F
:10015000C1F7E201898111969C918923818308C1AD
:10016000923009F407C112962D903C901397EB0141
:100170008A819B811496AD90BD90CD90DC901797AD
:10018000EC80FD800E811F819101281B390BB90184
:1001900037FF04C066277727621B730B6032710537
:1001A0000CF061C0121613066CF537014801062EDB
:1001B00004C096948794779467940A94D2F721E0C8
:1001C00030E040E050E004C0220F331F441F551FB1
:1001D0006A95D2F721503040404050402E213F21B7
:1001E00040235123211531054105510521F021E01E
:1001F00030E040E050E079018A01E628F72808293C
:1002000019293CC0232BD1F1260E371E350146019A
:10021000062E04C096948794779467940A94D2F734
:1002200021E030E040E050E004C0220F331F441FC3
:10023000551F6A95D2F721503040404050402A2146
:100240003B214C215D21211531054105510521F04E
:1002500021E030E040E050E059016A01A628B728CB
:10026000C828D9280BC0821593052CF01C01AA249C
:10027000BB24650103C0EE24FF24870111969C91E5
:10028000D20111968C91981709F445C0992339F041
:10029000A80197012A193B094C095D0906C0A6016E
:1002A00095012E193F09400B510B57FD08C01182D3
:1002B0003382228224833583468357831DC081E0A5
:1002C00081833382228288279927DC01821B930B4A
:1002D000A40BB50B84839583A683B7830DC0220F2F
:1002E000331F441F551F24833583468357838281E0
:1002F000938101979383828324813581468157813D
:10030000DA01C9010197A109B1098F5F9F4FAF4F72
:10031000BF4328F30BC0918333822282EA0CFB1C7B
:100320000C1D1D1DE482F5820683178383E0808304
:10033000248135814681578157FF1AC0C901AA27F8
:1003400097FDA095BA2F81709070A070B0705695EF
:10035000479537952795822B932BA42BB52B848318
:100360009583A683B7838281938101969383828349
:10037000DF0101C0D201CD01CDB7DEB7E2E10C94BF
:10038000C529A0E2B0E0E7ECF1E00C94B52969835F
:100390007A838B839C832D833E834F835887E9E048
:1003A000EE2EF12CEC0EFD1ECE010196B7010E943F
:1003B000A4068E010F5E1F4FCE010596B8010E9464
:1003C000A4068A8991E089278A8BC701B801AE010A
:1003D000475E5F4F0E9475000E94CF05A096E6E041
:1003E0000C94D129A0E2B0E0E8EFF1E00C94B5293B
:1003F00069837A838B839C832D833E834F835887C5
:10040000F9E0EF2EF12CEC0EFD1ECE010196B701A6
:100410000E94A4068E010F5E1F4FCE010596B80103
:100420000E94A406C701B801AE01475E5F4F0E945B
:1004300075000E94CF05A096E6E00C94D129A0E2B9
:10044000B0E0E5E2F2E00C94A92969837A838B831A
:100450009C832D833E834F835887CE010196BE0136
:10046000675F7F4F0E94A406CE010596BE016F5EB6
:100470007F4F0E94A4069985923088F08989823046
:10048000C8F0943019F4823051F404C0843029F457
:10049000923081F484EA90E0C6C0923049F420E0C2
:1004A0009A858A89981321E02A87CE010996BBC0D4
:1004B000823049F420E09A858A89981321E02A8BBA
:1004C000CE014196B0C02D843E844F8458886D88FB
:1004D0007E888F88988CEE24FF248701AA24BB2471
:1004E000650140E050E060E070E0E0E0F0E0C10174
:1004F00081709070892BE9F0E60CF71C081D191D1E
:100500009A01AB012A0D3B1D4C1D5D1D80E090E062
:10051000A0E0B0E0E614F7040805190520F481E036
:1005200090E0A0E0B0E0BA01A901480F591F6A1F8E
:100530007B1FAA0CBB1CCC1CDD1C97FE08C081E0F5
:1005400090E0A0E0B0E0A82AB92ACA2ADB2A3196B6
:10055000E032F10549F0660C771C881C991C569412
:10056000479437942794C3CFFA85EA892B893C892D
:100570008B859C85280F391F2E5F3F4F17C0CA01FE
:1005800081709070892B61F016950795F794E79428
:1005900080E090E0A0E0B0E8E82AF92A0A2B1B2BC3
:1005A00076956795579547952F5F3F4F77FDE7CF36
:1005B0000CC0440F551F661F771F17FD4160EE0CDE
:1005C000FF1C001F111F21503040403090E05907A0
:1005D00090E0690790E4790760F32B8F3C8FDB0193
:1005E000CA018F779070A070B07080349105A1051A
:1005F000B10561F447FD0AC0E114F10401051105DC
:1006000029F0405C5F4F6F4F7F4F40781A8EFE1786
:1006100011F081E08A8F4D8F5E8F6F8F78A383E01A
:10062000898FCE0149960E94CF05A096E2E10C94F5
:10063000C529A8E1B0E0EFE1F3E00C94B1296983AA
:100640007A838B839C832D833E834F835887B9E0C5
:10065000EB2EF12CEC0EFD1ECE010196B7010E948F
:10066000A4068E010F5E1F4FCE010596B8010E94B1
:10067000A4062985223008F47EC03989323010F46E
:10068000B8017CC08A859A8989278A87243011F02D
:10069000223031F4231709F06EC064EA70E06EC0B6
:1006A000343039F41D861E861F86188A1C861B86E8
:1006B00004C0323021F484E08987B7015FC02B8504
:1006C0003C858B899C89281B390B3C872B87ED84C3
:1006D000FE840F851889AD88BE88CF88D88CEA142F
:1006E000FB040C051D0540F4EE0CFF1C001F111F40
:1006F000215030403C872B8720E030E040E050E044
:1007000080E090E0A0E0B0E460E070E0EA14FB0478
:100710000C051D0540F0282B392B4A2B5B2BEA18C2
:10072000FB080C091D09B695A79597958795EE0CC2
:10073000FF1C001F111F6F5F7F4F6F31710531F775
:10074000DA01C9018F779070A070B0708034910584
:10075000A105B10561F427FD0AC0E114F10401050A
:10076000110529F0205C3F4F4F4F5F4F20782D87B8
:100770003E874F87588BBE01675F7F4FCB010E943A
:10078000CF056896EAE00C94CD29A8E1B0E0EBEC47
:10079000F3E00C94B52969837A838B839C832D8342
:1007A0003E834F83588789E0E82EF12CEC0EFD1E26
:1007B000CE010196B7010E94A4068E010F5E1F4F65
:1007C000CE010596B8010E94A4068985823040F0CA
:1007D0008989823028F0C701B8010E941C0701C036
:1007E0008FEF6896E6E00C94D129A8E1B0E0EBEF3A
:1007F000F3E00C94B52969837A838B839C832D83E2
:100800003E834F83588789E0E82EF12CEC0EFD1EC5
:10081000CE010196B7010E94A4068E010F5E1F4F04
:10082000CE010596B8010E94A4068985823040F069
:100830008989823028F0C701B8010E941C0701C0D5
:100840008FEF6896E6E00C94D129A8E1B0E0EBE2E6
:10085000F4E00C94B52969837A838B839C832D8380
:100860003E834F83588789E0E82EF12CEC0EFD1E65
:10087000CE010196B7010E94A4068E010F5E1F4FA4
:10088000CE010596B8010E94A4068985823040F009
:100890008989823028F0C701B8010E941C0701C075
:1008A00081E06896E6E00C94D129A8E0B0E0EBE5A1
:1008B000F4E00C94B2299B01AC0183E08983DA0156
:1008C000C9018827B7FD83959927AA27BB27B82E8A
:1008D000211531054105510519F482E089833AC09B
:1008E0008823A9F0203080E0380780E0480780E8BE
:1008F000580729F460E070E080E09FEC30C0EE24FF
:10090000FF248701E21AF30A040B150B02C07901D8
:100910008A018EE1C82ED12CDC82CB82ED82FE8250
:100920000F831887C801B7010E9480050197181628
:10093000190684F4082E04C0EE0CFF1C001F111FC2
:100940000A94D2F7ED82FE820F831887C81AD90A5B
:10095000DC82CB82BA82CE0101960E94CF05289616
:10096000E9E00C94CE29ACE0B0E0E9EBF4E00C94C3
:10097000B92969837A838B839C83CE010196BE015A
:100980006B5F7F4F0E94A4068D81823061F18230BF
:1009900050F1843021F48E81882351F12EC02F81B3
:1009A000388537FD20C06E812F3131051CF066235C
:1009B000F9F023C08EE190E0821B930B29853A85E4
:1009C0004B855C8504C056954795379527958A9544
:1009D000D2F76623B1F050954095309521953F4F61
:1009E0004F4F5F4F0EC020E030E040E050E009C0C4
:1009F0002FEF3FEF4FEF5FE704C020E030E040E033
:100A000050E8B901CA012C96E2E00C94D529A8E07F
:100A1000B0E0EDE0F5E00C94B1297B018C016115AB
:100A200071058105910519F482E0898360C083E036
:100A300089838EE1C82ED12CDC82CB82ED82FE82AE
:100A40000F831887C801B7010E948005FC01319708
:100A5000F7FF3BC0222733272E1B3F0B57016801AE
:100A6000022E04C0D694C794B794A7940A94D2F7E0
:100A700040E050E060E070E081E090E0A0E0B0E0B5
:100A800004C0880F991FAA1FBB1F2A95D2F7019790
:100A9000A109B1098E219F21A023B1230097A105AF
:100AA000B10521F041E050E060E070E04A295B29A7
:100AB0006C297D294D835E836F8378878EE190E07A
:100AC0008E1B9F0B9C838B8312C0309781F00E2E60
:100AD00004C0EE0CFF1C001F111F0A94D2F7ED8218
:100AE000FE820F831887CE1ADF0ADC82CB821A823D
:100AF000CE0101960E94CF052896EAE00C94CD29FC
:100B0000EF92FF920F931F937B018C0180E0E81618
:100B100080E0F80681E0080780E0180788F48FEF8E
:100B2000E816F1040105110531F028F088E090E0A5
:100B3000A0E0B0E017C080E090E0A0E0B0E012C01C
:100B400080E0E81680E0F80680E0080781E01807FA
:100B500028F088E190E0A0E0B0E004C080E190E0FF
:100B6000A0E0B0E020E230E040E050E0281B390B8C
:100B70004A0B5B0B04C016950795F794E7948A958A
:100B8000D2F7F701E455FF4F8081281B3109410955
:100B90005109C9011F910F91FF90EF900895DF92C5
:100BA000EF92FF920F931F93FC01E480F580068182
:100BB0001781D1808081823048F480E090E0A0E10C
:100BC000B0E0E82AF92A0A2B1B2BA5C0843009F4CF
:100BD0009FC0823021F4EE24FF24870105C0E11478
:100BE000F1040105110519F4E0E0F0E096C062811E
:100BF00073819FEF623879070CF05BC022E83FEF0A
:100C0000261B370B2A3131052CF020E030E040E084
:100C100050E02AC0B801A701022E04C0769567955E
:100C2000579547950A94D2F781E090E0A0E0B0E0B4
:100C300004C0880F991FAA1FBB1F2A95D2F70197DE
:100C4000A109B1098E219F21A023B1230097A105FD
:100C5000B10521F081E090E0A0E0B0E09A01AB01A5
:100C6000282B392B4A2B5B2BDA01C9018F77907027
:100C7000A070B07080349105A105B10539F427FF4B
:100C800009C0205C3F4F4F4F5F4F04C0215C3F4F76
:100C90004F4F5F4FE0E0F0E02030A0E03A07A0E0E7
:100CA0004A07A0E45A0710F0E1E0F0E079018A0178
:100CB00027C06038710564F5FB01E158FF4FD8018A
:100CC000C7018F779070A070B07080349105A10536
:100CD000B10539F4E7FE0DC080E490E0A0E0B0E09B
:100CE00004C08FE390E0A0E0B0E0E80EF91E0A1F18
:100CF0001B1F17FF05C016950795F794E7943196CB
:100D000087E016950795F794E7948A95D1F705C083
:100D1000EE24FF248701EFEFF0E06E2F6795662742
:100D20006795902F9F77D794DD24D7948E2F869543
:100D3000492F462B582F5D29B701CA011F910F91EA
:100D4000FF90EF90DF900895FC01DB01408151811D
:100D50002281622F6F7770E0221F2227221F93814A
:100D6000892F880F822B282F30E0991F9927991FF0
:100D700011969C93119721153105A9F5411551053F
:100D80006105710511F482E037C082E89FEF139688
:100D90009C938E9312979A01AB0167E0220F331F49
:100DA000441F551F6A95D1F783E08C930DC0220F25
:100DB000331F441F551F12968D919C9113970197D5
:100DC00013969C938E931297203080E0380780E032
:100DD000480780E4580758F314962D933D934D939C
:100DE0005C93179708952F3F310579F4411551050C
:100DF0006105710519F484E08C93089564FF03C0C4
:100E000081E08C9312C01C9210C02F573040139673
:100E10003C932E93129783E08C9387E0440F551FE9
:100E2000661F771F8A95D1F7706414964D935D9372
:100E30006D937C93179708951F93DC01FB019C91A0
:100E4000923008F447C08081823008F443C0943067
:100E500051F411961C91843099F58181682F70E0CE
:100E6000611B71093FC0843021F0923031F482302F
:100E7000B9F18181882389F12DC011961C911197B8
:100E80008230F1F081811817D9F412962D913C919E
:100E90001397828193818217930794F0281739075B
:100EA000BCF014968D919D910D90BC91A02D248144
:100EB000358146815781281739074A075B0718F49F
:100EC000112341F00AC082179307A407B50740F425
:100ED000112319F061E070E005C06FEF7FEF02C0F1
:100EE00060E070E0CB011F910895DF93CF9300D0B5
:100EF0000F92CDB7DEB789838981282F30E03B83FD
:100F00002A838A819B818D34910531F02A813B812E
:100F100023353105A1F025C0A7E3B0E0E7E3F0E019
:100F20008081806B8C93A7E3B0E0E7E3F0E0808101
:100F30008F7B8C93EDE2F0E080E5808312C0A7E325
:100F4000B0E0E7E3F0E080818F7D8C93A7E3B0E031
:100F5000E7E3F0E0808180648C93EDE2F0E080E4F0
:100F600080830F900F900F90CF91DF910895DF93C2
:100F7000CF930F92CDB7DEB78983EFE2F0E089819E
:100F80008083EEE2F0E080818823DCF7EFE2F0E09E
:100F900080810F90CF91DF910895DF93CF93CDB7EC
:100FA000DEB7E1E2F0E01082E0E2F0E083E080838F
:100FB000A6E5B0E0E6E5F0E0808184608C93CF9117
:100FC000DF910895DF93CF93CDB7DEB7E6E5F0E08C
:100FD00084EA8083E6E5F0E08081881F8827881F07
:100FE000882F90E090700097A9F3CF91DF9108953A
:100FF000DF93CF93CDB7DEB7E6E5F0E084E98083F9
:10100000CF91DF910895DF93CF930F92CDB7DEB7E5
:101010008983E3E2F0E089818083E6E5F0E084E81B
:101020008083E6E5F0E08081881F8827881F882F6D
:1010300090E090700097A9F30F90CF91DF91089501
:10104000DF93CF9300D0CDB7DEB79A838983E6E5EF
:10105000F0E084E88083E6E5F0E08081881F88275F
:10106000881F882F90E090700097A9F3E3E2F0E0EA
:101070008081E981FA8180830F900F90CF91DF9179
:101080000895DF93CF9300D000D000D0CDB7DEB766
:101090008B836C838B818695869586958A838B81DD
:1010A000877089838A81282F30E03E832D838D814C
:1010B0009E818130910509F443C02D813E8122300B
:1010C00031052CF48D819E81009771F0BCC02D817B
:1010D0003E812230310509F45FC08D819E818330CD
:1010E000910509F485C0AFC08C818130A1F4ABE3D8
:1010F000B0E0EBE3F0E08081482F8981282F30E0D9
:1011000081E090E0022E02C0880F991F0A94E2F756
:10111000842B8C9398C0ABE3B0E0EBE3F0E08081EC
:10112000482F8981282F30E081E090E0022E02C014
:10113000880F991F0A94E2F7809584238C9383C0CB
:101140008C818130A1F4A8E3B0E0E8E3F0E0808195
:10115000482F8981282F30E081E090E0022E02C0E4
:10116000880F991F0A94E2F7842B8C936CC0A8E334
:10117000B0E0E8E3F0E08081482F8981282F30E05B
:1011800081E090E0022E02C0880F991F0A94E2F7D6
:10119000809584238C9357C08C818130A1F4A5E382
:1011A000B0E0E5E3F0E08081482F8981282F30E02E
:1011B00081E090E0022E02C0880F991F0A94E2F7A6
:1011C000842B8C9340C0A5E3B0E0E5E3F0E08081A0
:1011D000482F8981282F30E081E090E0022E02C064
:1011E000880F991F0A94E2F7809584238C932BC073
:1011F0008C818130A1F4A2E3B0E0E2E3F0E08081F1
:10120000482F8981282F30E081E090E0022E02C033
:10121000880F991F0A94E2F7842B8C9314C0A2E3E1
:10122000B0E0E2E3F0E08081482F8981282F30E0B0
:1012300081E090E0022E02C0880F991F0A94E2F725
:10124000809584238C9326960FB6F894DEBF0FBE4C
:10125000CDBFCF91DF910895DF93CF9300D000D021
:1012600000D0CDB7DEB78C831B828C8186958695A6
:1012700086958A838C81877089838A81282F30E0C4
:101280003E832D834D815E814130510541F18D8139
:101290009E818230910534F42D813E8121153105E6
:1012A00061F052C04D815E814230510551F18D8116
:1012B0009E8183309105B9F147C0E9E3F0E0808178
:1012C000282F30E08981882F90E0A90102C0559530
:1012D00047958A95E2F7CA0181708B8335C0E6E3B2
:1012E000F0E08081282F30E08981882F90E0A901EB
:1012F00002C0559547958A95E2F7CA0181708B83A4
:1013000023C0E3E3F0E08081282F30E08981882F3B
:1013100090E0A90102C0559547958A95E2F7CA0168
:1013200081708B8311C0E0E3F0E08081282F30E0F2
:101330008981882F90E0A90102C0559547958A952B
:10134000E2F7CA0181708B838B8126960FB6F894E1
:10135000DEBF0FBECDBFCF91DF910895DF93CF9356
:1013600000D000D0CDB7DEB789836A838981282F6A
:1013700030E03C832B838B819C8181309105D1F0BF
:101380002B813C81223031052CF48B819C8100978C
:1013900061F01EC02B813C812230310581F08B81B0
:1013A0009C818330910581F013C0EBE3F0E08A81EA
:1013B00080830EC0E8E3F0E08A81808309C0E5E322
:1013C000F0E08A81808304C0E2E3F0E08A818083D8
:1013D0000F900F900F900F90CF91DF910895DF93B2
:1013E000CF9300D000D0CDB7DEB78A8319828A812F
:1013F000282F30E03C832B838B819C8181309105A9
:10140000D1F02B813C81223031052CF48B819C81E1
:10141000009761F01EC02B813C812230310581F0A4
:101420008B819C818330910581F013C0E9E3F0E06A
:10143000808189830EC0E6E3F0E08081898309C062
:10144000E3E3F0E08081898304C0E0E3F0E08081A1
:10145000898389810F900F900F900F90CF91DF912A
:101460000895DF93CF9300D000D00F92CDB7DEB7B1
:101470001B82FCC08B818695869586958A838B819D
:10148000877089838A81282F30E03D832C838C816B
:101490009D818130910509F44BC02C813D81223022
:1014A00031052CF48C819D81009771F0DCC02C817A
:1014B0003D812230310509F46FC08C819D818330DC
:1014C000910509F49DC0CFC08B81882F90E0880FD3
:1014D000991FFC01E455FE4F80818130A1F4AAE3FD
:1014E000B0E0EAE3F0E08081482F8981282F30E0E6
:1014F00081E090E0022E02C0880F991F0A94E2F763
:10150000842B8C93B0C0AAE3B0E0EAE3F0E08081E2
:10151000482F8981282F30E081E090E0022E02C020
:10152000880F991F0A94E2F7809584238C939BC0BF
:101530008B81882F90E0880F991FFC01E455FE4FA6
:1015400080818130A1F4A7E3B0E0E7E3F0E080819F
:10155000482F8981282F30E081E090E0022E02C0E0
:10156000880F991F0A94E2F7842B8C937CC0A7E321
:10157000B0E0E7E3F0E08081482F8981282F30E058
:1015800081E090E0022E02C0880F991F0A94E2F7D2
:10159000809584238C9367C08B81882F90E0880F7F
:1015A000991FFC01E455FE4F80818130A1F4A4E332
:1015B000B0E0E4E3F0E08081482F8981282F30E01B
:1015C00081E090E0022E02C0880F991F0A94E2F792
:1015D000842B8C9348C0A4E3B0E0E4E3F0E0808186
:1015E000482F8981282F30E081E090E0022E02C050
:1015F000880F991F0A94E2F7809584238C9333C057
:101600008B81882F90E0880F991FFC01E455FE4FD5
:1016100080818130A1F4A1E3B0E0E1E3F0E08081DA
:10162000482F8981282F30E081E090E0022E02C00F
:10163000880F991F0A94E2F7842B8C9314C0A1E3BE
:10164000B0E0E1E3F0E08081482F8981282F30E08D
:1016500081E090E0022E02C0880F991F0A94E2F701
:10166000809584238C938B818F5F8B838B818032D9
:1016700008F400CF0F900F900F900F900F90CF9124
:10168000DF910895DF93CF93CDB7DEB7E7E2F0E0C7
:1016900080EC8083E6E2F0E086E88083CF91DF9102
:1016A0000895DF93CF9300D00F92CDB7DEB78B8331
:1016B0001A821982A7E2B0E0E7E2F0E08081982F79
:1016C000907E8B818F71892B8C93A6E2B0E0E6E24D
:1016D000F0E0808180648C93E6E2F0E08081882FE6
:1016E00090E0807190700097B9F3A6E2B0E0E6E276
:1016F000F0E0808180618C93E4E2F0E08081882FCB
:1017000090E09A838983E5E2F0E08081882F90E081
:10171000982F88279C0189819A81822B932B9A8309
:10172000898389819A810F900F900F90CF91DF91DB
:101730000895EF92FF920F931F93DF93CF93CDB74E
:10174000DEB7A0970FB6F894DEBF0FBECDBF78947A
:10175000A9E5B0E0E9E5F0E0808184608C93ECE4F9
:10176000F0E011821082EFE4F0E01082AEE4B0E02D
:10177000EEE4F0E0808182648C93A8E5B0E0E8E5D7
:10178000F0E0808184608C93A8E5B0E0E8E5F0E0CB
:10179000808180628C9380E061E00E94410880E05B
:1017A00090E0A0E2B1E48D8B9E8BAF8BB88F6D89FA
:1017B0007E898F89988D2BEA3AEA4AE250E40E94AA
:1017C0001F02DC01CB01898B9A8BAB8BBC8B6989A7
:1017D0007A898B899C8920E030E040E85FE30E94B1
:1017E000250488231CF481E0888B91C069897A895B
:1017F0008B899C8920E030E04FE753E40E94C503C9
:1018000018160CF07BC06D897E898F89988D20E039
:1018100030E04AE754E40E941903DC01CB018C87D5
:101820009D87AE87BF876C857D858E859F8520E0EF
:1018300030E04AEF54E40E941F02DC01CB018887AC
:101840009987AA87BB87688579858A859B8520E0EB
:1018500030E040E85FE30E94250488232CF481E017
:1018600090E09F838E833FC0688579858A859B85BC
:1018700020E03FEF4FE757E40E94C50318164CF5F0
:101880006C857D858E859F8520E030E040E251E4C7
:101890000E941F02DC01CB01BC01CD010E94490066
:1018A000DC01CB019F838E830FC088EC90E09D8389
:1018B0008C838C819D810197F1F79D838C838E8130
:1018C0009F8101979F838E838E819F81009769F707
:1018D00024C0688579858A859B850E944900DC0142
:1018E000CB019F838E838E819F819B838A838A8194
:1018F0009B810197F1F79B838A830FC069897A895D
:101900008B899C890E944900DC01CB01888B8889E6
:10191000898389818A95F1F7898380E060E00E945C
:101920004108E8E5F0E08081882F90E080729070B7
:101930000097B9F3ECE4F0E01182108210920402F7
:10194000109205021092060210920702AEE4B0E077
:10195000EEE4F0E080818F7B8C93A8E5B0E0E8E5D1
:10196000F0E0808184608C93A8E5B0E0E8E5F0E0E9
:10197000808180628C93E8E5F0E08081882F90E0A0
:10198000807290700097B9F3E6E4F0E08081918175
:101990007C0100E010E08091040290910502A0918A
:1019A0000602B09107022FEF3FEF40E050E0BC018C
:1019B000CD010E944D29DC01CB018E0D9F1DA01F82
:1019C000B11F8D8F9E8FAF8FB8A36D8D7E8D8F8D44
:1019D00098A10E945504DC01CB01BC01CD0128E295
:1019E0003EE74CE05CE30E941F02DC01CB01898FE3
:1019F0009A8FAB8FBC8F898D9A8DAB8DBC8DBC01BE
:101A0000CD01A0960FB6F894DEBF0FBECDBFCF912B
:101A1000DF911F910F91FF90EF9008951F920F9209
:101A20000FB60F9211248F939F93AF93BF93DF93C1
:101A3000CF93CDB7DEB78091040290910502A091BB
:101A40000602B09107020196A11DB11D8093040208
:101A500090930502A0930602B0930702CF91DF9105
:101A6000BF91AF919F918F910F900FBE0F901F90DC
:101A70001895DF93CF93CDB7DEB7AAE2B0E0EAE2E4
:101A8000F0E0808188618C93A0E4B0E0E0E4F0E0D5
:101A9000808186688C93E9E2F0E087E68083A0E4A9
:101AA000B0E0E0E4F0E080818C93CF91DF91089585
:101AB000DF93CF930F92CDB7DEB78983EBE2F0E0EF
:101AC0008081882F90E0807290700097B9F3ECE2EB
:101AD000F0E0898180830F90CF91DF910895DF93AB
:101AE000CF93CDB7DEB7EBE2F0E080818823DCF75F
:101AF000ECE2F0E08081CF91DF910895DF93CF9306
:101B000000D00F92CDB7DEB79B838A830EC0898148
:101B1000282F30E08A819B81FC01E20FF31F808136
:101B20000E94580D89818F5F89838981282F30E039
:101B30008A819B81FC01E20FF31F8081882339F7A2
:101B40000F900F900F90CF91DF910895DF93CF9377
:101B5000CDB7DEB7EC970FB6F894DEBF0FBECDBFA2
:101B60001CAE1BAE0AC080E063E070E00E94AD0FC7
:101B70008BAD9CAD01969CAF8BAF8BAD9CAD863988
:101B800091058CF3EBE3F0E089E0808380E090E066
:101B9000A0E4B0E48DAB9EABAFABB8AF6DA97EA9AE
:101BA0008FA998AD20E030E04AEF54E40E941F0274
:101BB000DC01CB0189AB9AABABABBCAB69A97AA911
:101BC0008BA99CA920E030E040E85FE30E94250457
:101BD00088232CF481E090E098AB8FA73FC069A9DF
:101BE0007AA98BA99CA920E03FEF4FE757E40E9418
:101BF000C50318164CF56DA97EA98FA998AD20E0F4
:101C000030E040E251E40E941F02DC01CB01BC0144
:101C1000CD010E944900DC01CB0198AB8FA70FC01A
:101C200088EC90E09EA78DA78DA59EA50197F1F762
:101C30009EA78DA78FA598A9019798AB8FA78FA571
:101C400098A9009769F714C069A97AA98BA99CA9DA
:101C50000E944900DC01CB0198AB8FA78FA598A902
:101C60009CA78BA78BA59CA50197F1F79CA78BA799
:101C700080E090E0AAE7B4E48FA398A7A9A7BAA749
:101C80006FA178A589A59AA520E030E04AEF54E439
:101C90000E941F02DC01CB018BA39CA3ADA3BEA3BA
:101CA0006BA17CA18DA19EA120E030E040E85FE324
:101CB0000E94250488232CF481E090E09AA389A354
:101CC0003FC06BA17CA18DA19EA120E03FEF4FE71B
:101CD00057E40E94C50318164CF56FA178A589A595
:101CE0009AA520E030E040E251E40E941F02DC01AE
:101CF000CB01BC01CD010E944900DC01CB019AA3BC
:101D000089A30FC088EC90E098A38F8F8F8D98A146
:101D10000197F1F798A38F8F89A19AA101979AA3B0
:101D200089A389A19AA1009769F714C06BA17CA12E
:101D30008DA19EA10E944900DC01CB019AA389A339
:101D400089A19AA19E8F8D8F8D8D9E8D0197F1F720
:101D50009E8F8D8F1AAE19AE0AC081E063E070E0ED
:101D60000E94AD0F89AD9AAD01969AAF89AF89AD4A
:101D70009AAD863991058CF3EBE3F0E089E080833E
:101D800080E090E0A0E4B0E4898F9A8FAB8FBC8FA5
:101D9000698D7A8D8B8D9C8D20E030E04AEF54E484
:101DA0000E941F02DC01CB018D8B9E8BAF8BB88F05
:101DB0006D897E898F89988D20E030E040E85FE36F
:101DC0000E94250488232CF481E090E09C8B8B8B6F
:101DD0003FC06D897E898F89988D20E03FEF4FE766
:101DE00057E40E94C50318164CF5698D7A8D8B8DCA
:101DF0009C8D20E030E040E251E40E941F02DC01B3
:101E0000CB01BC01CD010E944900DC01CB019C8BC0
:101E10008B8B0FC088EC90E09A8B898B89899A898B
:101E20000197F1F79A8B898B8B899C8901979C8B01
:101E30008B8B8B899C89009769F714C06D897E898B
:101E40008F89988D0E944900DC01CB019C8B8B8B84
:101E50008B899C89988B8F878F8598890197F1F75B
:101E6000988B8F8780E090E0AAE7B4E48B879C870B
:101E7000AD87BE876B857C858D859E8520E030E0B3
:101E80004AEF54E40E941F02DC01CB018F83988744
:101E9000A987BA876F81788589859A8520E030E0A7
:101EA00040E85FE30E94250488232CF481E090E061
:101EB0009E838D833FC06F81788589859A8520E0D8
:101EC0003FEF4FE757E40E94C50318164CF56B85AA
:101ED0007C858D859E8520E030E040E251E40E94C3
:101EE0001F02DC01CB01BC01CD010E944900DC01D5
:101EF000CB019E838D830FC088EC90E09C838B8305
:101F00008B819C810197F1F79C838B838D819E81CE
:101F100001979E838D838D819E81009769F714C000
:101F20006F81788589859A850E944900DC01CB0103
:101F30009E838D838D819E819A83898389819A81F5
:101F40000197F1F79A838983EC960FB6F894DEBF78
:101F50000FBECDBFCF91DF9108950F931F93DF93F5
:101F6000CF93CDB7DEB7C55ED0400FB6F894DEBFD5
:101F70000FBECDBFFE01EF51FF4F8083FE01EE513A
:101F8000FF4F71836083FE01EF51FF4F8081282F47
:101F900030E0CC51DF4F39832883C45ED040CC5130
:101FA000DF4F88819981C45ED040009761F0CC51A9
:101FB000DF4FE881F981C45ED040E130F10509F4DA
:101FC00014C60C94D31AEBE3F0E089E08083FE01A1
:101FD000EE51FF4F80819181AA2797FDA095BA2FDE
:101FE000BC01CD010E945504DC01CB01FE01E3528E
:101FF000FF4F80839183A283B3838E0107521F4FCB
:10200000FE01E352FF4F608171818281938120E064
:1020100030E04AEF54E40E941F02DC01CB01F801DA
:1020200080839183A283B383FE01E752FF4F6081D7
:1020300071818281938120E030E040E85FE30E947B
:102040002504882344F4FE01E952FF4F81E090E02B
:102050009183808364C0FE01E752FF4F60817181EC
:102060008281938120E03FEF4FE757E40E94C50350
:1020700018160CF043C0FE01E352FF4F60817181DE
:102080008281938120E030E040E251E40E941F020F
:10209000DC01CB018E0109521F4FBC01CD010E9412
:1020A0004900DC01CB01F801918380831FC0FE0150
:1020B000EB52FF4F88EC90E091838083FE01EB525E
:1020C000FF4F808191810197F1F7FE01EB52FF4FA5
:1020D00091838083DE01A952BF4FFE01E952FF4F79
:1020E00080819181019711969C938E93FE01E95214
:1020F000FF4F808191810097D1F627C08E01095250
:102100001F4FFE01E752FF4F6081718182819381F1
:102110000E944900DC01CB01F80191838083DE013C
:10212000AD52BF4FFE01E952FF4F808191818D93E7
:102130009C93FE01ED52FF4F808191810197F1F751
:10214000FE01ED52FF4F91838083EBE3F0E088E0E6
:102150008083FE01EE51FF4F80819181AA2797FD78
:10216000A095BA2FBC01CD010E945504DC01CB0122
:10217000FE01E153FF4F80839183A283B3838E01DD
:1021800005531F4FFE01E153FF4F60817181828132
:10219000938120E030E04AEF54E40E941F02DC010A
:1021A000CB01F80180839183A283B383FE01E553C1
:1021B000FF4F608171818281938120E030E040E8AF
:1021C0005FE30E942504882344F4FE01E753FF4F98
:1021D00081E090E09183808364C0FE01E553FF4F6E
:1021E000608171818281938120E03FEF4FE757E466
:1021F0000E94C50318160CF043C0FE01E153FF4FC7
:10220000608171818281938120E030E040E251E47D
:102210000E941F02DC01CB018E0107531F4FBC013E
:10222000CD010E944900DC01CB01F801918380833C
:102230001FC0FE01E953FF4F88EC90E0918380833B
:10224000FE01E953FF4F808191810197F1F7FE0173
:10225000E953FF4F91838083DE01A753BF4FFE01F7
:10226000E753FF4F80819181019711969C938E9344
:10227000FE01E753FF4F808191810097D1F627C07F
:102280008E0107531F4FFE01E553FF4F608171819F
:10229000828193810E944900DC01CB01F801918386
:1022A0008083DE01AB53BF4FFE01E753FF4F8081B8
:1022B00091818D939C93FE01EB53FF4F808191811F
:1022C0000197F1F7FE01EB53FF4F91838083EBE31E
:1022D000F0E08CE08083FE01EE51FF4F8081918120
:1022E000AA2797FDA095BA2FBC01CD010E945504E5
:1022F000DC01CB01FE01EF53FF4F80839183A2836A
:10230000B3838E0103541F4FFE01EF53FF4F6081D3
:1023100071818281938120E030E04AEF54E40E9491
:102320001F02DC01CB01F80180839183A283B38378
:10233000FE01E354FF4F608171818281938120E02F
:1023400030E040E85FE30E942504882344F4FE0166
:10235000E554FF4F81E090E09183808364C0FE01EB
:10236000E354FF4F608171818281938120E03FEFD0
:102370004FE757E40E94C50318160CF043C0FE0156
:10238000EF53FF4F608171818281938120E030E0C3
:1023900040E251E40E941F02DC01CB018E01055492
:1023A0001F4FBC01CD010E944900DC01CB01F801A7
:1023B000918380831FC0FE01E754FF4F88EC90E0BB
:1023C00091838083FE01E754FF4F808191810197C3
:1023D000F1F7FE01E754FF4F91838083DE01A5549E
:1023E000BF4FFE01E554FF4F808191810197119607
:1023F0009C938E93FE01E554FF4F8081918100975D
:10240000D1F627C08E0105541F4FFE01E354FF4F44
:1024100060817181828193810E944900DC01CB013E
:10242000F80191838083DE01A954BF4FFE01E5547A
:10243000FF4F808191818D939C93FE01E954FF4F62
:10244000808191810197F1F7FE01E954FF4F91835B
:102450008083EBE3F0E084E08083FE01EE51FF4FE8
:1024600080819181AA2797FDA095BA2FBC01CD014B
:102470000E945504DC01CB01FE01ED54FF4F808327
:102480009183A283B3838E0101551F4FFE01ED544A
:10249000FF4F608171818281938120E030E04AEFBB
:1024A00054E40E941F02DC01CB01F8018083918378
:1024B000A283B383FE01E155FF4F60817181828168
:1024C000938120E030E040E85FE30E942504882308
:1024D00044F4FE01E355FF4F81E090E09183808357
:1024E00064C0FE01E155FF4F60817181828193815B
:1024F00020E03FEF4FE757E40E94C50318160CF0A9
:1025000043C0FE01ED54FF4F608171818281938150
:1025100020E030E040E251E40E941F02DC01CB01E8
:102520008E0103551F4FBC01CD010E944900DC0103
:10253000CB01F801918380831FC0FE01E555FF4F59
:1025400088EC90E091838083FE01E555FF4F808108
:1025500091810197F1F7FE01E555FF4F918380834B
:10256000DE01A355BF4FFE01E355FF4F80819181EE
:10257000019711969C938E93FE01E355FF4F808146
:1025800091810097D1F627C08E0103551F4FFE01A0
:10259000E155FF4F60817181828193810E944900E2
:1025A000DC01CB01F80191838083DE01A755BF4F89
:1025B000FE01E355FF4F808191818D939C93FE0135
:1025C000E755FF4F808191810197F1F7FE01E755B3
:1025D000FF4F91838083EBE3F0E086E08083FE0190
:1025E000EE51FF4F80819181AA2797FDA095BA2FC8
:1025F000BC01CD010E945504DC01CB01FE01EB556D
:10260000FF4F80839183A283B3838E010F551F4FA9
:10261000FE01EB55FF4F608171818281938120E043
:1026200030E04AEF54E40E941F02DC01CB01F801C4
:1026300080839183A283B383FE01EF55FF4F6081B6
:1026400071818281938120E030E040E85FE30E9465
:102650002504882344F4FE01E156FF4F81E090E019
:102660009183808364C0FE01EF55FF4F60817181CB
:102670008281938120E03FEF4FE757E40E94C5033A
:1026800018160CF043C0FE01EB55FF4F60817181BD
:102690008281938120E030E040E251E40E941F02F9
:1026A000DC01CB018E0101561F4FBC01CD010E9400
:1026B0004900DC01CB01F801918380831FC0FE013A
:1026C000E356FF4F88EC90E091838083FE01E35650
:1026D000FF4F808191810197F1F7FE01E356FF4F93
:1026E00091838083DE01A156BF4FFE01E156FF4F6B
:1026F00080819181019711969C938E93FE01E15602
:10270000FF4F808191810097D1F627C08E0101563D
:102710001F4FFE01EF55FF4F6081718182819381D0
:102720000E944900DC01CB01F80191838083DE0126
:10273000A556BF4FFE01E156FF4F808191818D93D9
:102740009C93FE01E556FF4F808191810197F1F73F
:10275000FE01E556FF4F91838083EBE3F0E082E0DA
:102760008083FE01EE51FF4F80819181AA2797FD62
:10277000A095BA2FBC01CD010E945504DC01CB010C
:10278000FE01E956FF4F80839183A283B3838E01BC
:102790000D561F4FFE01E956FF4F60817181828106
:1027A000938120E030E04AEF54E40E941F02DC01F4
:1027B000CB01F80180839183A283B383FE01ED56A0
:1027C000FF4F608171818281938120E030E040E899
:1027D0005FE30E942504882344F4FE01EF56FF4F77
:1027E00081E090E09183808364C0FE01ED56FF4F4D
:1027F000608171818281938120E03FEF4FE757E450
:102800000E94C50318160CF043C0FE01E956FF4FA5
:10281000608171818281938120E030E040E251E467
:102820000E941F02DC01CB018E010F561F4FBC011D
:10283000CD010E944900DC01CB01F8019183808326
:102840001FC0FE01E157FF4F88EC90E09183808329
:10285000FE01E157FF4F808191810197F1F7FE0161
:10286000E157FF4F91838083DE01AF56BF4FFE01DA
:10287000EF56FF4F80819181019711969C938E9323
:10288000FE01EF56FF4F808191810097D1F627C05E
:102890008E010F561F4FFE01ED56FF4F6081718173
:1028A000828193810E944900DC01CB01F801918370
:1028B0008083DE01A357BF4FFE01EF56FF4F80819B
:1028C00091818D939C93FE01E357FF4F808191810D
:1028D0000197F1F7FE01E357FF4F91838083EBE30C
:1028E000F0E083E08083FE01EE51FF4F8081918113
:1028F000AA2797FDA095BA2FBC01CD010E945504CF
:10290000DC01CB01FE01E757FF4F80839183A28357
:10291000B3838E010B571F4FFE01E757FF4F6081B6
:1029200071818281938120E030E04AEF54E40E947B
:102930001F02DC01CB01F80180839183A283B38362
:10294000FE01EB57FF4F608171818281938120E00E
:1029500030E040E85FE30E942504882344F4FE0150
:10296000ED57FF4F81E090E09183808364C0FE01CA
:10297000EB57FF4F608171818281938120E03FEFAF
:102980004FE757E40E94C50318160CF043C0FE0140
:10299000E757FF4F608171818281938120E030E0B1
:1029A00040E251E40E941F02DC01CB018E010D5771
:1029B0001F4FBC01CD010E944900DC01CB01F80191
:1029C000918380831FC0FE01EF57FF4F88EC90E09A
:1029D00091838083FE01EF57FF4F808191810197A2
:1029E000F1F7FE01EF57FF4F91838083DE01AD5772
:1029F000BF4FFE01ED57FF4F8081918101971196E6
:102A00009C938E93FE01ED57FF4F8081918100973B
:102A1000D1F627C08E010D571F4FFE01EB57FF4F18
:102A200060817181828193810E944900DC01CB0128
:102A3000F80191838083DE01A158BF4FFE01ED575D
:102A4000FF4F808191818D939C93FE01E158FF4F50
:102A5000808191810197F1F7FE01E158FF4F918349
:102A60008083EBE3F0E081E08083FE01EE51FF4FD5
:102A700080819181AA2797FDA095BA2FBC01CD0135
:102A80000E945504DC01CB01FE01E558FF4F808315
:102A90009183A283B3838E0109581F4FFE01E5582D
:102AA000FF4F608171818281938120E030E04AEFA5
:102AB00054E40E941F02DC01CB01F8018083918362
:102AC000A283B383FE01E958FF4F60817181828147
:102AD000938120E030E040E85FE30E9425048823F2
:102AE00044F4FE01EB58FF4F81E090E09183808336
:102AF00064C0FE01E958FF4F60817181828193813A
:102B000020E03FEF4FE757E40E94C50318160CF092
:102B100043C0FE01E558FF4F60817181828193813E
:102B200020E030E040E251E40E941F02DC01CB01D2
:102B30008E010B581F4FBC01CD010E944900DC01E2
:102B4000CB01F801918380831FC0FE01ED58FF4F38
:102B500088EC90E091838083FE01ED58FF4F8081E7
:102B600091810197F1F7FE01ED58FF4F918380832A
:102B7000DE01AB58BF4FFE01EB58FF4F80819181C2
:102B8000019711969C938E93FE01EB58FF4F808125
:102B900091810097D1F607C58E010B581F4FFE019A
:102BA000E958FF4F60817181828193810E944900C1
:102BB000DC01CB01F80191838083DE01AF58BF4F68
:102BC000FE01EB58FF4F8081918111969C938E936B
:102BD000FE01EF58FF4F808191810197F1F7FE01CF
:102BE000EF58FF4F91838083DEC4EBE3F0E081E098
:102BF0008083FE01EE51FF4F80819181AA2797FDCE
:102C0000A095BA2FBC01CD010E945504DC01CB0177
:102C1000FE01E359FF4F80839183A283B3838E012A
:102C200007591F4FFE01E359FF4F60817181828177
:102C3000938120E030E04AEF54E40E941F02DC015F
:102C4000CB01F80180839183A283B383FE01E7590E
:102C5000FF4F608171818281938120E030E040E804
:102C60005FE30E942504882344F4FE01E959FF4FE5
:102C700081E090E09183808364C0FE01E759FF4FBB
:102C8000608171818281938120E03FEF4FE757E4BB
:102C90000E94C50318160CF043C0FE01E359FF4F14
:102CA000608171818281938120E030E040E251E4D3
:102CB0000E941F02DC01CB018E0109591F4FBC018C
:102CC000CD010E944900DC01CB01F8019183808392
:102CD0001FC0FE01EB59FF4F88EC90E09183808389
:102CE000FE01EB59FF4F808191810197F1F7FE01C1
:102CF000EB59FF4F91838083DE01A959BF4FFE013D
:102D0000E959FF4F80819181019711969C938E9391
:102D1000FE01E959FF4F808191810097D1F627C0CC
:102D20008E0109591F4FFE01E759FF4F60817181E4
:102D3000828193810E944900DC01CB01F8019183DB
:102D40008083DE01AD59BF4FFE01E959FF4F8081FD
:102D500091818D939C93FE01ED59FF4F808191816C
:102D60000197F1F7FE01ED59FF4F91838083EBE36B
:102D7000F0E083E08083FE01EE51FF4F808191817E
:102D8000AA2797FDA095BA2FBC01CD010E9455043A
:102D9000DC01CB01FE01E15AFF4F80839183A283C6
:102DA000B3838E01055A1F4FFE01E15AFF4F608128
:102DB00071818281938120E030E04AEF54E40E94E7
:102DC0001F02DC01CB01F80180839183A283B383CE
:102DD000FE01E55AFF4F608171818281938120E07D
:102DE00030E040E85FE30E942504882344F4FE01BC
:102DF000E75AFF4F81E090E09183808364C0FE0139
:102E0000E55AFF4F608171818281938120E03FEF1D
:102E10004FE757E40E94C50318160CF043C0FE01AB
:102E2000E15AFF4F608171818281938120E030E01F
:102E300040E251E40E941F02DC01CB018E01075ADF
:102E40001F4FBC01CD010E944900DC01CB01F801FC
:102E5000918380831FC0FE01E95AFF4F88EC90E008
:102E600091838083FE01E95AFF4F80819181019710
:102E7000F1F7FE01E95AFF4F91838083DE01A75AE3
:102E8000BF4FFE01E75AFF4F808191810197119654
:102E90009C938E93FE01E75AFF4F808191810097AA
:102EA000D1F627C08E01075A1F4FFE01E55AFF4F8A
:102EB00060817181828193810E944900DC01CB0194
:102EC000F80191838083DE01AB5ABF4FFE01E75AC0
:102ED000FF4F808191818D939C93FE01EB5AFF4FB0
:102EE000808191810197F1F7FE01EB5AFF4F9183A9
:102EF0008083EBE3F0E082E08083FE01EE51FF4F40
:102F000080819181AA2797FDA095BA2FBC01CD01A0
:102F10000E945504DC01CB01FE01EF5AFF4F808374
:102F20009183A283B3838E01035B1F4FFE01EF5A8F
:102F3000FF4F608171818281938120E030E04AEF10
:102F400054E40E941F02DC01CB01F80180839183CD
:102F5000A283B383FE01E35BFF4F608171818281B5
:102F6000938120E030E040E85FE30E94250488235D
:102F700044F4FE01E55BFF4F81E090E091838083A4
:102F800064C0FE01E35BFF4F6081718182819381A8
:102F900020E03FEF4FE757E40E94C50318160CF0FE
:102FA00043C0FE01EF5AFF4F60817181828193819E
:102FB00020E030E040E251E40E941F02DC01CB013E
:102FC0008E01055B1F4FBC01CD010E944900DC0151
:102FD000CB01F801918380831FC0FE01E75BFF4FA7
:102FE00088EC90E091838083FE01E75BFF4F808156
:102FF00091810197F1F7FE01E75BFF4F9183808399
:10300000DE01A55BBF4FFE01E55BFF4F8081918133
:10301000019711969C938E93FE01E55BFF4F808193
:1030200091810097D1F627C08E01055B1F4FFE01ED
:10303000E35BFF4F60817181828193810E9449002F
:10304000DC01CB01F80191838083DE01A95BBF4FD6
:10305000FE01E55BFF4F808191818D939C93FE0182
:10306000E95BFF4F808191810197F1F7FE01E95BF8
:10307000FF4F91838083EBE3F0E086E08083FE01E5
:10308000EE51FF4F80819181AA2797FDA095BA2F1D
:10309000BC01CD010E945504DC01CB01FE01ED5BBA
:1030A000FF4F80839183A283B3838E01015C1F4F06
:1030B000FE01ED5BFF4F608171818281938120E091
:1030C00030E04AEF54E40E941F02DC01CB01F8011A
:1030D00080839183A283B383FE01FF966081718117
:1030E0008281938120E030E040E85FE30E94250484
:1030F00088232CF481E090E09EAF8DAF46C0FE01A6
:10310000FF96608171818281938120E03FEF4FE7DC
:1031100057E40E94C503181664F5FE01ED5BFF4FEE
:10312000608171818281938120E030E040E251E44E
:103130000E941F02DC01CB01BC01CD010E944900AD
:10314000DC01CB019EAF8DAF0FC088EC90E09CAF4F
:103150008BAF8BAD9CAD0197F1F79CAF8BAF8DAD75
:103160009EAD01979EAF8DAF8DAD9EAD009769F777
:1031700016C0FE01FF9660817181828193810E9459
:103180004900DC01CB019EAF8DAF8DAD9EAD9AAFF6
:1031900089AF89AD9AAD0197F1F79AAF89AFEBE3AB
:1031A000F0E084E08083FE01EE51FF4F8081918149
:1031B000AA2797FDA095BA2FBC01CD010E94550406
:1031C000DC01CB018DAB9EABAFABB8AF6DA97EA9D7
:1031D0008FA998AD20E030E04AEF54E40E941F022E
:1031E000DC01CB0189AB9AABABABBCAB69A97AA9CB
:1031F0008BA99CA920E030E040E85FE30E94250411
:1032000088232CF481E090E098AB8FA73FC069A998
:103210007AA98BA99CA920E03FEF4FE757E40E94D1
:10322000C50318164CF56DA97EA98FA998AD20E0AD
:1032300030E040E251E40E941F02DC01CB01BC01FE
:10324000CD010E944900DC01CB0198AB8FA70FC0D4
:1032500088EC90E09EA78DA78DA59EA50197F1F71C
:103260009EA78DA78FA598A9019798AB8FA78FA52B
:1032700098A9009769F714C069A97AA98BA99CA994
:103280000E944900DC01CB0198AB8FA78FA598A9BC
:103290009CA78BA78BA59CA50197F1F79CA78BA753
:1032A000EBE3F0E08CE08083FE01EE51FF4F808184
:1032B0009181AA2797FDA095BA2FBC01CD010E944C
:1032C0005504DC01CB018FA398A7A9A7BAA76FA1CA
:1032D00078A589A59AA520E030E04AEF54E40E9441
:1032E0001F02DC01CB018BA39CA3ADA3BEA36BA1EA
:1032F0007CA18DA19EA120E030E040E85FE30E9428
:10330000250488232CF481E090E09AA389A33FC090
:103310006BA17CA18DA19EA120E03FEF4FE757E478
:103320000E94C50318164CF56FA178A589A59AA52A
:1033300020E030E040E251E40E941F02DC01CB01BA
:10334000BC01CD010E944900DC01CB019AA389A3F5
:103350000FC088EC90E098A38F8F8F8D98A1019774
:10336000F1F798A38F8F89A19AA101979AA389A3B6
:1033700089A19AA1009769F714C06BA17CA18DA1C6
:103380009EA10E944900DC01CB019AA389A389A1D7
:103390009AA19E8F8D8F8D8D9E8D0197F1F79E8FB7
:1033A0008D8FEBE3F0E088E08083FE01EE51FF4F6C
:1033B00080819181AA2797FDA095BA2FBC01CD01EC
:1033C0000E945504DC01CB01898F9A8FAB8FBC8F93
:1033D000698D7A8D8B8D9C8D20E030E04AEF54E42E
:1033E0000E941F02DC01CB018D8B9E8BAF8BB88FAF
:1033F0006D897E898F89988D20E030E040E85FE319
:103400000E94250488232CF481E090E09C8B8B8B18
:103410003FC06D897E898F89988D20E03FEF4FE70F
:1034200057E40E94C50318164CF5698D7A8D8B8D73
:103430009C8D20E030E040E251E40E941F02DC015C
:10344000CB01BC01CD010E944900DC01CB019C8B6A
:103450008B8B0FC088EC90E09A8B898B89899A8935
:103460000197F1F79A8B898B8B899C8901979C8BAB
:103470008B8B8B899C89009769F714C06D897E8935
:103480008F89988D0E944900DC01CB019C8B8B8B2E
:103490008B899C89988B8F878F8598890197F1F705
:1034A000988B8F87EBE3F0E089E08083FE01EE519B
:1034B000FF4F80819181AA2797FDA095BA2FBC016B
:1034C000CD010E945504DC01CB018B879C87AD8721
:1034D000BE876B857C858D859E8520E030E04AEF38
:1034E00054E40E941F02DC01CB018F839887A987D7
:1034F000BA876F81788589859A8520E030E040E839
:103500005FE30E94250488232CF481E090E09E83F1
:103510008D833FC06F81788589859A8520E03FEF54
:103520004FE757E40E94C50318164CF56B857C8560
:103530008D859E8520E030E040E251E40E941F022C
:10354000DC01CB01BC01CD010E944900DC01CB01B3
:103550009E838D830FC088EC90E09C838B838B814E
:103560009C810197F1F79C838B838D819E810197CC
:103570009E838D838D819E81009769F714C06F8132
:10358000788589859A850E944900DC01CB019E835C
:103590008D838D819E819A83898389819A81019708
:1035A000F1F79A838983CB51DF4F0FB6F894DEBFD2
:1035B0000FBECDBFCF91DF911F910F910895DF9383
:1035C000CF93CDB7DEB7A1E3B0E0E1E3F0E08081D7
:1035D00080688C93E5E4F0E08CE68083E3E4F0E03F
:1035E0008FEF80836AE570E080E090E00E94FB1A34
:1035F000CF91DF9108950F931F93DF93CF9300D066
:1036000000D0CDB7DEB769837A838B839C8303E4D4
:1036100010E089819A81AB81BC812AEF30E040E0E3
:1036200050E0BC01CD010E944D29DC01CB0124EB0F
:1036300030E040E050E0BC01CD010E946C29DA018D
:10364000C9018750F80180830F900F900F900F9061
:10365000CF91DF911F910F910895DF93CF93CDB755
:10366000DEB7A6970FB6F894DEBF0FBECDBF8AE0D7
:1036700060E00E9441088BE061E00E94410880E028
:1036800090E0A0EAB1E48BA39CA3ADA3BEA36BA181
:103690007CA18DA19EA120E030E04AEF54E40E947D
:1036A0001F02DC01CB018F8F98A3A9A3BAA36F8D52
:1036B00078A189A19AA120E030E040E85FE30E9470
:1036C000250488232CF481E090E09E8F8D8F3FC0ED
:1036D0006F8D78A189A19AA120E03FEF4FE757E4D1
:1036E0000E94C50318164CF56BA17CA18DA19EA16B
:1036F00020E030E040E251E40E941F02DC01CB01F7
:10370000BC01CD010E944900DC01CB019E8F8D8F51
:103710000FC088EC90E09C8F8B8F8B8D9C8D0197D8
:10372000F1F79C8F8B8F8D8D9E8D01979E8F8D8F46
:103730008D8D9E8D009769F714C06F8D78A189A13A
:103740009AA10E944900DC01CB019E8F8D8F8D8D47
:103750009E8D9A8F898F898D9A8D0197F1F79A8F17
:10376000898F83E30E948A1C80E090E0A8ECB2E499
:103770008D8B9E8BAF8BB88F6D897E898F89988D4D
:103780002BEA3AEA4AE250E40E941F02DC01CB0134
:10379000898B9A8BAB8BBC8B69897A898B899C8945
:1037A00020E030E040E85FE30E94250488231CF419
:1037B00081E0888B91C069897A898B899C8920E016
:1037C00030E04FE753E40E94C50318160CF07BC0AD
:1037D0006D897E898F89988D20E030E04AE754E436
:1037E0000E941903DC01CB018C879D87AE87BF87C0
:1037F0006C857D858E859F8520E030E04AEF54E41E
:103800000E941F02DC01CB0188879987AA87BB87AA
:10381000688579858A859B8520E030E040E85FE314
:103820000E94250488232CF481E090E09F838E83FE
:103830003FC0688579858A859B8520E03FEF4FE70B
:1038400057E40E94C50318164CF56C857D858E855E
:103850009F8520E030E040E251E40E941F02DC013D
:10386000CB01BC01CD010E944900DC01CB019F834B
:103870008E830FC088EC90E09D838C838C819D812A
:103880000197F1F79D838C838E819F8101979F83A0
:103890008E838E819F81009769F724C06885798522
:1038A0008A859B850E944900DC01CB019F838E8322
:1038B0008E819F819B838A838A819B810197F1F707
:1038C0009B838A830FC069897A898B899C890E942E
:1038D0004900DC01CB01888B8889898389818A959D
:1038E000F1F7898382E30E948A1C88E20E948A1C85
:1038F00086E00E948A1C8CE00E948A1C81E00E9463
:103900008A1CA6960FB6F894DEBF0FBECDBFCF912E
:10391000DF9108950F931F93DF93CF93CDB7DEB759
:10392000CE54D0400FB6F894DEBF0FBECDBFFE011F
:10393000E25BFF4F808389E060E00E94410881E004
:103940000E94EF09FE01E35BFF4F8083FE01E35B12
:10395000FF4F8081982F9F70FE01E25BFF4F8081B7
:10396000807F892BFE01E35BFF4F8083FE01E35BD9
:10397000FF4F81E060810E94AE098BE060E00E9411
:103980004108FE01E75BFF4F80E090E0A8ECB2E465
:1039900080839183A283B3838E010B5B1F4FFE0153
:1039A000E75BFF4F60817181828193812BEA3AEA64
:1039B0004AE250E40E941F02DC01CB01F80180833F
:1039C0009183A283B383FE01EB5BFF4F6081718122
:1039D0008281938120E030E040E85FE30E9425048B
:1039E000882334F4FE01EC5BFF4F81E08083A7C0A5
:1039F000FE01EB5BFF4F608171818281938120E04A
:103A000030E04FE753E40E94C50318160CF087C05E
:103A1000FE01E75BFF4F608171818281938120E02D
:103A200030E04AE754E40E941903DC01CB01FE01B7
:103A3000E05CFF4F80839183A283B383FE01E05C4F
:103A4000FF4F608171818281938120E030E04AEFF5
:103A500054E40E941F02DC01CB018CAF9DAFAEAFDE
:103A6000BFAF6CAD7DAD8EAD9FAD20E030E040E8E6
:103A70005FE30E94250488232CF481E090E09BAF53
:103A80008AAF42C06CAD7DAD8EAD9FAD20E03FEF03
:103A90004FE757E40E94C503181664F5FE01E05C89
:103AA000FF4F608171818281938120E030E040E2AC
:103AB00051E40E941F02DC01CB01BC01CD010E9438
:103AC0004900DC01CB019BAF8AAF0FC088EC90E0CE
:103AD00099AF88AF88AD99AD0197F1F799AF88AFED
:103AE0008AAD9BAD01979BAF8AAF8AAD9BAD009726
:103AF00069F72EC06CAD7DAD8EAD9FAD0E944900C3
:103B0000DC01CB019BAF8AAF8AAD9BAD9FAB8EAB87
:103B10008EA99FA90197F1F79FAB8EAB19C08E01BB
:103B20000C5B1F4FFE01EB5BFF4F60817181828157
:103B300093810E944900DC01CB01F8018083FE01E2
:103B4000EC5BFF4F80818DAB8DA98A95F1F78DAB32
:103B50008BE061E00E94410880E090E0A0EAB0E4E0
:103B600089AB9AABABABBCAB69A97AA98BA99CA971
:103B700020E030E04AEF54E40E941F02DC01CB0158
:103B80008DA79EA7AFA7B8AB6DA57EA58FA598A959
:103B900020E030E040E85FE30E94250488232CF415
:103BA00081E090E09CA78BA73FC06DA57EA58FA567
:103BB00098A920E03FEF4FE757E40E94C50318168D
:103BC0004CF569A97AA98BA99CA920E030E040E2D4
:103BD00051E40E941F02DC01CB01BC01CD010E9417
:103BE0004900DC01CB019CA78BA70FC088EC90E0BB
:103BF0009AA789A789A59AA50197F1F79AA789A7F6
:103C00008BA59CA501979CA78BA78BA59CA500972E
:103C100069F714C06DA57EA58FA598A90E944900DB
:103C2000DC01CB019CA78BA78BA59CA598A78FA394
:103C30008FA198A50197F1F798A78FA381E00E9423
:103C4000EF09FE01E35BFF4F8083FE01E35BFF4F63
:103C50008081282F2F70FE01E25BFF4F8081882F2B
:103C600090E082959295907F9827807F9827822B6D
:103C7000FE01E35BFF4F8083FE01E35BFF4F81E0CA
:103C800060810E94AE098BE060E00E94410880E004
:103C900090E0A8ECB2E48BA39CA3ADA3BEA36BA160
:103CA0007CA18DA19EA12BEA3AEA4AE250E40E944F
:103CB0001F02DC01CB018F8F98A3A9A3BAA36F8D3C
:103CC00078A189A19AA120E030E040E85FE30E945A
:103CD000250488231CF481E08E8F91C06F8D78A11C
:103CE00089A19AA120E030E04FE753E40E94C50388
:103CF00018160CF07BC06BA17CA18DA19EA120E0C9
:103D000030E04AE754E40E941903DC01CB018A8FBA
:103D10009B8FAC8FBD8F6A8D7B8D8C8D9D8D20E0B0
:103D200030E04AEF54E40E941F02DC01CB018E8B8D
:103D30009F8BA88FB98F6E897F89888D998D20E0A0
:103D400030E040E85FE30E94250488232CF481E002
:103D500090E09D8B8C8B3FC06E897F89888D998D7B
:103D600020E03FEF4FE757E40E94C50318164CF5DB
:103D70006A8D7B8D8C8D9D8D20E030E040E251E49A
:103D80000E941F02DC01CB01BC01CD010E94490051
:103D9000DC01CB019D8B8C8B0FC088EC90E09B8B62
:103DA0008A8B8A899B890197F1F79B8B8A8B8C89F7
:103DB0009D8901979D8B8C8B8C899D89009769F7D4
:103DC00024C06E897F89888D998D0E944900DC010D
:103DD000CB019D8B8C8B8C899D89998B888B888955
:103DE00099890197F1F7998B888B0FC06F8D78A116
:103DF00089A19AA10E944900DC01CB018E8F8E8D92
:103E00008F878F858A95F1F78F878BE061E00E941D
:103E1000410880E090E0A0E0B0E48B879C87AD870C
:103E2000BE876B857C858D859E8520E030E04AEFDE
:103E300054E40E941F02DC01CB018F839887A9877D
:103E4000BA876F81788589859A8520E030E040E8DF
:103E50005FE30E94250488232CF481E090E09E8398
:103E60008D833FC06F81788589859A8520E03FEFFB
:103E70004FE757E40E94C50318164CF56B857C8507
:103E80008D859E8520E030E040E251E40E941F02D3
:103E9000DC01CB01BC01CD010E944900DC01CB015A
:103EA0009E838D830FC088EC90E09C838B838B81F5
:103EB0009C810197F1F79C838B838D819E81019773
:103EC0009E838D838D819E81009769F714C06F81D9
:103ED000788589859A850E944900DC01CB019E8303
:103EE0008D838D819E819A83898389819A810197AF
:103EF000F1F79A838983C25BDF4F0FB6F894DEBF78
:103F00000FBECDBFCF91DF911F910F9108950F93F9
:103F10001F93DF93CF93CDB7DEB7CE54D0400FB60B
:103F2000F894DEBF0FBECDBFFE01E25BFF4F808382
:103F300089E061E00E94410881E00E94EF09FE01F2
:103F4000E35BFF4F8083FE01E35BFF4F8081982F8F
:103F50009F70FE01E25BFF4F8081807F892BFE0115
:103F6000E35BFF4F8083FE01E35BFF4F81E06081F5
:103F70000E94AE098BE060E00E944108FE01E75B11
:103F8000FF4F80E090E0A8ECB2E480839183A283AD
:103F9000B3838E010B5B1F4FFE01E75BFF4F608118
:103FA0007181828193812BEA3AEA4AE250E40E94CD
:103FB0001F02DC01CB01F80180839183A283B383CC
:103FC000FE01EB5BFF4F608171818281938120E074
:103FD00030E040E85FE30E942504882334F4FE01CA
:103FE000EC5BFF4F81E08083A7C0FE01EB5BFF4FDE
:103FF000608171818281938120E030E04FE753E45A
:104000000E94C50318160CF087C0FE01E75BFF4F46
:10401000608171818281938120E030E04AE754E43D
:104020000E941903DC01CB01FE01E05CFF4F80839D
:104030009183A283B383FE01E05CFF4F60817181B5
:104040008281938120E030E04AEF54E40E941F0215
:10405000DC01CB018CAF9DAFAEAFBFAF6CAD7DAD22
:104060008EAD9FAD20E030E040E85FE30E94250484
:1040700088232CF481E090E09BAF8AAF42C06CAD06
:104080007DAD8EAD9FAD20E03FEF4FE757E40E943E
:10409000C503181664F5FE01E05CFF4F6081718175
:1040A0008281938120E030E040E251E40E941F02CF
:1040B000DC01CB01BC01CD010E944900DC01CB0138
:1040C0009BAF8AAF0FC088EC90E099AF88AF88AD06
:1040D00099AD0197F1F799AF88AF8AAD9BAD019784
:1040E0009BAF8AAF8AAD9BAD009769F72EC06CADD0
:1040F0007DAD8EAD9FAD0E944900DC01CB019BAF31
:104100008AAF8AAD9BAD9FAB8EAB8EA99FA901975D
:10411000F1F79FAB8EAB19C08E010C5B1F4FFE01F8
:10412000EB5BFF4F60817181828193810E94490026
:10413000DC01CB01F8018083FE01EC5BFF4F808145
:104140008DAB8DA98A95F1F78DAB8BE061E00E9474
:10415000410880E090E0A0EAB0E489AB9AABABAB59
:10416000BCAB69A97AA98BA99CA920E030E04AEFF1
:1041700054E40E941F02DC01CB018DA79EA7AFA7CC
:10418000B8AB6DA57EA58FA598A920E030E040E8EA
:104190005FE30E94250488232CF481E090E09CA733
:1041A0008BA73FC06DA57EA58FA598A920E03FEF06
:1041B0004FE757E40E94C50318164CF569A97AA980
:1041C0008BA99CA920E030E040E251E40E941F024C
:1041D000DC01CB01BC01CD010E944900DC01CB0117
:1041E0009CA78BA70FC088EC90E09AA789A789A508
:1041F0009AA50197F1F79AA789A78BA59CA5019786
:104200009CA78BA78BA59CA5009769F714C06DA5EB
:104210007EA58FA598A90E944900DC01CB019CA72F
:104220008BA78BA59CA598A78FA38FA198A5019775
:10423000F1F798A78FA381E00E94EF09FE01E35BED
:10424000FF4F8083FE01E35BFF4F8081282F2F709B
:10425000FE01E25BFF4F8081992787FD9095829553
:104260009295907F9827807F9827822BFE01E35BB1
:10427000FF4F8083FE01E35BFF4F81E060810E947E
:10428000AE098BE060E00E94410880E090E0A8EC7D
:10429000B2E48BA39CA3ADA3BEA36BA17CA18DA113
:1042A0009EA12BEA3AEA4AE250E40E941F02DC0196
:1042B000CB018F8F98A3A9A3BAA36F8D78A189A1F1
:1042C0009AA120E030E040E85FE30E9425048823C3
:1042D0001CF481E08E8F91C06F8D78A189A19AA185
:1042E00020E030E04FE753E40E94C50318160CF0BD
:1042F0007BC06BA17CA18DA19EA120E030E04AE7AC
:1043000054E40E941903DC01CB018A8F9B8FAC8F90
:10431000BD8F6A8D7B8D8C8D9D8D20E030E04AEFC6
:1043200054E40E941F02DC01CB018E8B9F8BA88F6F
:10433000B98F6E897F89888D998D20E030E040E8C3
:104340005FE30E94250488232CF481E090E09D8B9C
:104350008C8B3FC06E897F89888D998D20E03FEFDF
:104360004FE757E40E94C50318164CF56A8D7B8D04
:104370008C8D9D8D20E030E040E251E40E941F02D0
:10438000DC01CB01BC01CD010E944900DC01CB0165
:104390009D8B8C8B0FC088EC90E09B8B8A8B8A89DD
:1043A0009B890197F1F79B8B8A8B8C899D8901975B
:1043B0009D8B8C8B8C899D89009769F724C06E89B1
:1043C0007F89888D998D0E944900DC01CB019D8BEE
:1043D0008C8B8C899D89998B888B88899989019789
:1043E000F1F7998B888B0FC06F8D78A189A19AA165
:1043F0000E944900DC01CB018E8F8E8D8F878F85C7
:104400008A95F1F78F878BE061E00E94410880E098
:1044100090E0A0E0B0E48B879C87AD87BE876B857A
:104420007C858D859E8520E030E04AEF54E40E9433
:104430001F02DC01CB018F839887A987BA876F8120
:10444000788589859A8520E030E040E85FE30E9426
:10445000250488232CF481E090E09E838D833FC067
:104460006F81788589859A8520E03FEF4FE757E493
:104470000E94C50318164CF56B857C858D859E853D
:1044800020E030E040E251E40E941F02DC01CB0159
:10449000BC01CD010E944900DC01CB019E838D83CC
:1044A0000FC088EC90E09C838B838B819C8101976B
:1044B000F1F79C838B838D819E8101979E838D83F1
:1044C0008D819E81009769F714C06F8178858985F9
:1044D0009A850E944900DC01CB019E838D838D81EA
:1044E0009E819A83898389819A810197F1F79A83C2
:1044F0008983C25BDF4F0FB6F894DEBF0FBECDBF1E
:10450000CF91DF911F910F910895DF93CF9300D04A
:104510000F92CDB7DEB79B838A8319820EC0898143
:10452000282F30E08A819B81FC01E20FF31F8081FC
:104530000E94871F89818F5F89838981282F30E0BE
:104540008A819B81FC01E20FF31F8081882339F768
:104550000F900F900F90CF91DF910895DF93CF933D
:1045600000D000D0CDB7DEB789836A838981282F38
:1045700030E03C832B838B819C818130910531F02D
:104580002B813C812230310539F00BC08A818F703C
:1045900080680E948A1C05C08A818F70806C0E948E
:1045A0008A1C0F900F900F900F90CF91DF9108957C
:1045B000DF93CF9300D000D0CDB7DEB78A837C8362
:1045C0006B8319828A818830F8F48A81882F90E081
:1045D0000896880F991F880F991F880F991F0E94AE
:1045E0008A1C19820EC08981282F30E08B819C8122
:1045F000FC01E20FF31F80810E94871F89818F5F7A
:1046000089838981883078F30F900F900F900F90F5
:10461000CF91DF910895DF93CF9300D000D0CDB735
:10462000DEB71B8217C08B81882F90E0FC01E4511C
:10463000FE4F808161E00E9441088B81882F90E0CD
:10464000FC01E051FE4F808161E00E9441088B81B6
:104650008F5F8B838B81843030F31A8248C08A81CC
:10466000882F90E0FC01E451FE4F808160E00E94C1
:10467000410819822CC08981882F90E0FC01E0510B
:10468000FE4F80810E942C098823F1F48981882FB4
:1046900090E0FC01E051FE4F80810E942C098823AC
:1046A000A9F38A81482F50E08981282F30E0CA0180
:1046B000880F991F880F991F820F931FFC01EC50E0
:1046C000FE4F80818C8319C089818F5F89838981A6
:1046D000843088F28A81882F90E0FC01E451FE4FFB
:1046E000808161E00E9441088A818F5F8A838A818C
:1046F000843008F4B4CF89E08C838C810F900F90C4
:104700000F900F90CF91DF910895DF93CF93CDB7A6
:10471000DEB7A1E3B0E0E1E3F0E0808180618C935B
:10472000A4E3B0E0E4E3F0E08081806C8C93EFE4FC
:10473000F0E082E28083EEE4F0E08BE18083E8E465
:10474000F0E088EE93E091838083A5E3B0E0E5E3B9
:10475000F0E0808180648C93A5E3B0E0E5E3F0E0D5
:1047600080818F778C93E6E4F0E084EF91E0918391
:104770008083CF91DF910895DF93CF9300D0CDB7A1
:10478000DEB79A838983E8E4F0E089819A81918396
:1047900080830F900F90CF91DF910895DF93CF9397
:1047A00000D0CDB7DEB789836A830E94E20788EA2A
:1047B0000E9403088A810E94030889810E940308DD
:1047C0000E94F8070F900F90CF91DF910895DF932B
:1047D000CF9300D00F92CDB7DEB789837B836A83F6
:1047E0000E94E20788EA0E94030889810E94030868
:1047F0000E94E20789EA0E9403088A819B810E9445
:1048000020080E94F8070F900F900F90CF91DF9132
:1048100008950F931F93DF93CF93CDB7DEB7CB559A
:10482000D0400FB6F894DEBF0FBECDBF0E94310A54
:104830000E942D1B0E94CD070E94DF1A0E94420B8E
:10484000FE01E45BFF4F1082FE01E45BFF4F81E05D
:104850008183FE01E45BFF4F82E08283FE01E45B23
:10486000FF4F83E08383FE01E05BFF4F81E08083A5
:10487000FE01E05BFF4F1182FE01E05BFF4F128201
:10488000FE01E05BFF4F85E08383FE01E55BFF4FA8
:104890001082FE01E65BFF4F10823BC381E00E9465
:1048A0008A1C80E690E00E948522FE01ED5BFF4FAE
:1048B00080E090E0AAE7B4E480839183A283B3838D
:1048C0008E01015C1F4FFE01ED5BFF4F6081718126
:1048D0008281938120E030E04AEF54E40E941F027D
:1048E000DC01CB01F80180839183A283B383FE01B5
:1048F000FF96608171818281938120E030E040E801
:104900005FE30E94250488232CF481E090E09EAFB1
:104910008DAF46C0FE01FF966081718182819381D7
:1049200020E03FEF4FE757E40E94C503181664F5F7
:10493000FE01ED5BFF4F608171818281938120E0F8
:1049400030E040E251E40E941F02DC01CB01BC01D7
:10495000CD010E944900DC01CB019EAF8DAF0FC09D
:1049600088EC90E09CAF8BAF8BAD9CAD0197F1F7DD
:104970009CAF8BAF8DAD9EAD01979EAF8DAF8DADD2
:104980009EAD009769F716C0FE01FF9660817181A8
:10499000828193810E944900DC01CB019EAF8DAFE3
:1049A0008DAD9EAD9AAF89AF89AD9AAD0197F1F704
:1049B0009AAF89AFFE01E75BFF4F1082FE01E85B13
:1049C000FF4F108237C00E940B23FE01E95BFF4FAF
:1049D0008083FE01E95BFF4F8081893059F1FE0140
:1049E000E85BFF4F8081882341F481E00E948A1CAC
:1049F000FE01E85BFF4F81E08083FE01E75BFF4F34
:104A00008081282F30E0CE018B5A9F4FDC01A20F0E
:104A1000B31FFE01E95BFF4F80818C938AE20E9405
:104A2000871FDE01A75BBF4FFE01E75BFF4F808161
:104A30008F5F8C93FE01E75BFF4F8081843019F616
:104A400081E00E948A1C81E790E00E94852280E03C
:104A500090E0AAE7B4E48DAB9EABAFABB8AF6DA965
:104A60007EA98FA998AD20E030E04AEF54E40E947F
:104A70001F02DC01CB0189AB9AABABABBCAB69A924
:104A80007AA98BA99CA920E030E040E85FE30E946E
:104A9000250488232CF481E090E098AB8FA73FC0D9
:104AA00069A97AA98BA99CA920E03FEF4FE757E4B9
:104AB0000E94C50318164CF56DA97EA98FA998AD63
:104AC00020E030E040E251E40E941F02DC01CB0113
:104AD000BC01CD010E944900DC01CB0198AB8FA73E
:104AE0000FC088EC90E09EA78DA78DA59EA501978D
:104AF000F1F79EA78DA78FA598A9019798AB8FA7CF
:104B00008FA598A9009769F714C069A97AA98BA9FC
:104B10009CA90E944900DC01CB0198AB8FA78FA50F
:104B200098A99CA78BA78BA59CA50197F1F79CA79B
:104B30008BA7FE01E75BFF4F10825BC1FE01E75BC5
:104B4000FF4F8081282F30E0CE01845B9F4FFC0116
:104B5000E20FF31F80819E012C5A3F4FB9010E9442
:104B6000E723FE01EC5AFF4F8081882F90E09E01E1
:104B7000275A3F4FB9014AE050E00E94E02980E007
:104B800090E0AAE7B4E48FA398A7A9A7BAA76FA15A
:104B900078A589A59AA520E030E04AEF54E40E9468
:104BA0001F02DC01CB018BA39CA3ADA3BEA36BA111
:104BB0007CA18DA19EA120E030E040E85FE30E944F
:104BC000250488232CF481E090E09AA389A33FC0B8
:104BD0006BA17CA18DA19EA120E03FEF4FE757E4A0
:104BE0000E94C50318164CF56FA178A589A59AA552
:104BF00020E030E040E251E40E941F02DC01CB01E2
:104C0000BC01CD010E944900DC01CB019AA389A31C
:104C10000FC088EC90E098A38F8F8F8D98A101979B
:104C2000F1F798A38F8F89A19AA101979AA389A3DD
:104C300089A19AA1009769F714C06BA17CA18DA1ED
:104C40009EA10E944900DC01CB019AA389A389A1FE
:104C50009AA19E8F8D8F8D8D9E8D0197F1F79E8FDE
:104C60008D8FFE01E65AFF4F80919C008083FE01EC
:104C7000E55AFF4F80919C008083FE01E75AFF4F69
:104C80008081FE01E65AFF4F8083FE01E75BFF4F04
:104C90008081282F30E0CE018B5A9F4FFC01E20F1C
:104CA000F31F8081FE01E55AFF4F8083FE01E65A23
:104CB000FF4F9081FE01E55AFF4F8081981709F45C
:104CC0008FC081E00E948A1C8CE790E00E948522C0
:104CD000DE01A65BBF4FFE01E65BFF4F80818F5F69
:104CE0008C93FE01E65BFF4F8081833030F00E94A1
:104CF000D127FE01E65BFF4F108280E090E0AAE73B
:104D0000B4E4898F9A8FAB8FBC8F698D7A8D8B8D30
:104D10009C8D20E030E04AEF54E40E941F02DC0149
:104D2000CB018D8B9E8BAF8BB88F6D897E898F89E0
:104D3000988D20E030E040E85FE30E94250488235E
:104D40002CF481E090E09C8B8B8B3FC06D897E8939
:104D50008F89988D20E03FEF4FE757E40E94C5030D
:104D600018164CF5698D7A8D8B8D9C8D20E030E086
:104D700040E251E40E941F02DC01CB01BC01CD01E5
:104D80000E944900DC01CB019C8B8B8B0FC088EC0F
:104D900090E09A8B898B89899A890197F1F79A8B90
:104DA000898B8B899C8901979C8B8B8B8B899C89A8
:104DB000009769F725C06D897E898F89988D0E943B
:104DC0004900DC01CB019C8B8B8B8B899C89988B58
:104DD0008F878F8598890197F1F7988B8F8710C0FF
:104DE000DE01A75BBF4FFE01E75BFF4F80818F5F56
:104DF0008C93FE01E75BFF4F8081843009F09ECEEB
:104E0000FE01E75BFF4F8081843009F082C0FE0124
:104E1000E55BFF4F81E0808381E00E948A1C8BE884
:104E200090E00E9485220E94B7270E94852380E09F
:104E300090E0AAE7B4E48B879C87AD87BE876B853B
:104E40007C858D859E8520E030E04AEF54E40E9409
:104E50001F02DC01CB018F839887A987BA876F81F6
:104E6000788589859A8520E030E040E85FE30E94FC
:104E7000250488232CF481E090E09E838D833FC03D
:104E80006F81788589859A8520E03FEF4FE757E469
:104E90000E94C50318164CF56B857C858D859E8513
:104EA00020E030E040E251E40E941F02DC01CB012F
:104EB000BC01CD010E944900DC01CB019E838D83A2
:104EC0000FC088EC90E09C838B838B819C81019741
:104ED000F1F79C838B838D819E8101979E838D83C7
:104EE0008D819E81009769F714C06F8178858985CF
:104EF0009A850E944900DC01CB019E838D838D81C0
:104F00009E819A83898389819A810197F1F79A8397
:104F10008983FE01E55BFF4F8081882309F4BECCC5
:104F2000FE01E55BFF4F8081813099F70E943C29AB
:104F30000E94A60D0E94E62880913A0290913B02C1
:104F4000A0913C02B0913D02BC01CD010E94B3048E
:104F5000DC01CB01823191052CF084EF91E00E94BD
:104F6000BC23D7CF8AEF90E00E94BC23D2CFDF933F
:104F7000CF93CDB7DEB764EB70E080E090E00E94A5
:104F8000FB1ACF91DF910895DF93CF93CDB7DEB7B2
:104F90006AE570E080E090E00E94FB1ACF91DF911B
:104FA0000895DF93CF93CDB7DEB76D970FB6F89422
:104FB000DEBF0FBECDBF1D8EF5C0A2E3B0E0E2E3C1
:104FC000F0E0808180668C9380E090E0AAE7B4E412
:104FD000898F9A8FAB8FBC8F698D7A8D8B8D9C8DCD
:104FE00020E030E04AEF54E40E941F02DC01CB01D4
:104FF0008D8B9E8BAF8BB88F6D897E898F89988DB5
:1050000020E030E040E85FE30E94250488232CF490
:1050100081E090E09C8B8B8B3FC06D897E898F896E
:10502000988D20E03FEF4FE757E40E94C503181624
:105030004CF5698D7A8D8B8D9C8D20E030E040E2BF
:1050400051E40E941F02DC01CB01BC01CD010E9492
:105050004900DC01CB019C8B8B8B0FC088EC90E06E
:105060009A8B898B89899A890197F1F79A8B898B19
:105070008B899C8901979C8B8B8B8B899C89009752
:1050800069F714C06D897E898F89988D0E944900C7
:10509000DC01CB019C8B8B8B8B899C89988B8F87B8
:1050A0008F8598890197F1F7988B8F87A2E3B0E0FD
:1050B000E2E3F0E080818F798C9380E090E0AAE7D2
:1050C000B4E48B879C87AD87BE876B857C858D8597
:1050D0009E8520E030E04AEF54E40E941F02DC018C
:1050E000CB018F839887A987BA876F817885898557
:1050F0009A8520E030E040E85FE30E9425048823A1
:105100002CF481E090E09E838D833FC06F81788591
:1051100089859A8520E03FEF4FE757E40E94C50359
:1051200018164CF56B857C858D859E8520E030E0DA
:1051300040E251E40E941F02DC01CB01BC01CD0121
:105140000E944900DC01CB019E838D830FC088EC57
:1051500090E09C838B838B819C810197F1F79C83EA
:105160008B838D819E8101979E838D838D819E810E
:10517000009769F714C06F81788589859A850E94A8
:105180004900DC01CB019E838D838D819E819A83B2
:10519000898389819A810197F1F79A8389838D8D1B
:1051A0008F5F8D8F8D8D853008F407CFA2E3B0E03F
:1051B000E2E3F0E080818F798C936D960FB6F894DE
:1051C000DEBF0FBECDBFCF91DF910895DF93CF93A8
:1051D000CDB7DEB784E00E94510BCC01A0E0B0E077
:1051E000BC01CD010E940705DC01CB0180933A028E
:1051F00090933B02A0933C02B0933D0280913A020F
:1052000090913B02A0913C02B0913D02BC01CD01C6
:1052100020E030E040E850E40E941903DC01CB01BB
:1052200080933A0290933B02A0933C02B0933D02DC
:1052300080913A0290913B02A0913C02B0913D02D4
:10524000BC01CD010E94B304DC01CB0128E032E0B7
:10525000B9014AE050E00E94E02982E060E00E944B
:10526000AE228EE990E00E94852288E092E00E94C2
:105270008522CF91DF910895DF93CF93CDB7DEB72D
:1052800088E00E942C09882319F40E94B72702C0E5
:105290000E94C427CF91DF910895629FD001739F30
:1052A000F001829FE00DF11D649FE00DF11D929FC2
:1052B000F00D839FF00D749FF00D659FF00D992701
:1052C000729FB00DE11DF91F639FB00DE11DF91F25
:1052D000BD01CF011124089597FB092E05260ED09C
:1052E00057FD04D014D00AD0001C38F450954095D6
:1052F000309521953F4F4F4F5F4F0895F6F79095AA
:105300008095709561957F4F8F4F9F4F0895A1E2D3
:105310001A2EAA1BBB1BFD010DC0AA1FBB1FEE1F2F
:10532000FF1FA217B307E407F50720F0A21BB30B7A
:10533000E40BF50B661F771F881F991F1A9469F7F6
:1053400060957095809590959B01AC01BD01CF0152
:1053500008952F923F924F925F926F927F928F9219
:105360009F92AF92BF92CF92DF92EF92FF920F93F4
:105370001F93CF93DF93CDB7DEB7CA1BDB0B0FB6FE
:10538000F894DEBF0FBECDBF09942A8839884888BB
:105390005F846E847D848C849B84AA84B984C88451
:1053A000DF80EE80FD800C811B81AA81B981CE0F48
:1053B000D11D0FB6F894DEBF0FBECDBFED0108952D
:1053C000FB019F01E8944230C4F04532B4F44A3006
:1053D00029F497FB1EF4909581959F4F642F7727B2
:1053E0000E94112A805D8A330CF0895D8193CB0184
:1053F0000097A1F716F45DE251931082C9010C9455
:10540000012ADC01FC01672F71917723E1F73297C4
:1054100004C07C916D9370836291AE17BF07C8F38F
:105420000895AA1BBB1B51E107C0AA1FBB1FA617EB
:10543000B70710F0A61BB70B881F991F5A95A9F73D
:0E54400080959095BC01CD010895F894FFCFA2
:10544E00456E7465722050617373776F726421219B
:10545E000057616974696E672E2E2E0057726F6E3B
:10546E00672050617373776F726400436F72726559
:10547E0063742050617373776F726400000054651B
:10548E006D703D00000000000000000000010202EF
:10549E0003030303040404040404040405050505BE
:1054AE00050505050505050505050505060606069A
:1054BE00060606060606060606060606060606067E
:1054CE00060606060606060606060606070707076A
:1054DE00070707070707070707070707070707074E
:1054EE00070707070707070707070707070707073E
:1054FE00070707070707070707070707070707072E
:10550E000707070707070707070707070808080819
:10551E0008080808080808080808080808080808FD
:10552E0008080808080808080808080808080808ED
:10553E0008080808080808080808080808080808DD
:10554E0008080808080808080808080808080808CD
:10555E0008080808080808080808080808080808BD
:10556E0008080808080808080808080808080808AD
:10557E00080808080808080808080808080808089D
:10558E0008080808080808080808080801010101A9
:10559E0001010101000001010101010100010101F0
:1055AE0001010101010101010101010101010101DD
:1055BE0000000000000000000101010101010100D6
:1055CE0001010101010101000100010118191A1B5D
:1055DE0012131415313233413435364237383943CC
:0455EE002A302344F8
:00000001FF
